:100000000C9452490C9473490C9473D10C94734919
:100010000C9473490C9473490C9473490C94734970
:100020000C9473490C9473490C9473490C94EED35B
:100030000C9473490C9473490C94C6B60C94734990
:100040000C9473490C9473490C9473490C94734940
:100050000C9473490C9473490C9473490C94734930
:100060000C9473490C948DD10C9419D10C94734950
:100070000C94ACCA0C9449CA0C9485CA0C9473496C
:100080000C9489D20C9473490C9473490C94734961
:100090000C9473490C9473490C9473490C947349F0
:1000A0000C9473490C9473490C9473490C94FEBCE2
:1000B0000C949EBD0C9473490C9473490C9443B8F2
:1000C0000C9473490C9473490C9473490C947349C0
:1000D0000C9473490C9473490C9473490C947349B0
:1000E0000C94D8A80C9473490C9473490C947349DC
:1000F0000C9473490C9473490C9473490C94734990
:100100000C94D6BC0C9476BD0C94AEBC0C944EBD35
:100110000C9473490C9473490C9473490C9473496F
:100120000C9473490C9473490C9473490C9473495F
:100130000C9473490C94C8B70C9473490C9473498C
:100140000C9473490C9473490C9473490C9473493F
:100150000C9473490C9473490C94CEA80C94734975
:100160000C9473490C9473490C9473490C9473491F
:100170000C9473490C9473490C9473490C9473490F
:100180000C9473490C9473490C9473490C947349FF
:100190000C9473490C9473490C9473490C947349EF
:1001A0000C9426BD0C94C6BD0C9473490C947349F1
:1001B0000C9402B80C9473490C9473490C947349D1
:1001C0000C9473490C9473490C9473490C947349BF
:1001D0000C9473490C9473490C9473490C947349AF
:1001E0000C9473490C94734983738E739973A5733C
:1001F000B173F977F977F977F977F977B873F97710
:10020000F977F977F977F977F977C473CF73DA73F8
:10021000E673F173F977F977F977F977F977F97781
:10022000FC73F9773A74F977F977F977F977F97711
:10023000F977F9775C74F977B077F977F977F97727
:10024000F977F977F977F977F977B077F977F97777
:10025000F9776B7471747C7488749474A074AC7442
:10026000F977B874F977F977D874F977F977F97776
:10027000F977F977F977F977F977F977F977F977FE
:10028000F977F977F977F977E474F977F977F97706
:10029000F977F977F977F977F977F977F0741075D5
:1002A00030755E756975A0794A794E7956793279DB
:1002B00036793E794279617974797C79807984796B
:1002C000F6795A7988798C79907994799C79127732
:1002D00027773C77FB77FB7794767073FB775177C2
:1002E00064777677C47774759A77FB77A976FB770E
:1002F0008877BE768676FB77FB77FB77D376E876D2
:10030000FD7645BC4CBC53BC5ABC61BC68BC6FBCE0
:1003100076BC92BFF0BEF8BE00BF08BF10BF18BFCA
:1003200020BF28BF30BF38BF40BF48BF50BF58BFF5
:1003300078BF78BF78BF78BF78BF78BF78BF78BF05
:1003400078BF78BF78BF78BF78BF78BF78BF78BFF5
:1003500078BF78BF78BF78BF78BF78BF78BF78BFE5
:1003600078BF78BF78BF78BF78BF78BF78BF78BFD5
:1003700078BF78BF78BF60BF68BF78BF78BF78BFED
:1003800078BF78BF78BF78BF78BF78BF78BF78BFB5
:1003900078BF78BF78BF78BF78BF78BF78BF78BFA5
:1003A00078BF78BF78BF78BF78BF78BF78BF78BF95
:1003B00078BF78BF78BF78BF78BF78BF78BF78BF85
:1003C00078BF78BF78BF78BF78BF78BF78BF78BF75
:1003D00078BF78BF78BF78BF70BF084AD73B3BCEA5
:1003E000016E84BCBFFDC12F3D6C74319ABD568334
:1003F0003DDA3D00C77F11BED9E4BB4C3E916BAAEC
:10040000AABE000000803F05A84CCDB2D44EB9383A
:1004100036A9020C50B9918688083CA6AAAA2ABE21
:10042000000000803F07634236B79BD8A71A39689F
:100430005618AEBAAB558C1D3CB7CC5763BD6DEDAD
:10044000FD753EF6177231BF000000803F080000C6
:1004500000BE922449123EABAAAA2ABECDCCCC4CF7
:100460003E00000080BEABAAAAAA3E00000000BF6A
:10047000000000803F0000000000084178D3BB432B
:1004800087D1133D190E3CC3BD4282AD2B3E68ECB3
:100490008276BED98FE1A93E4C80EFFFBE01C4FF3A
:1004A0007F3F0000000000006E616E00696E660014
:1004B0004E414E494E495459494E46CDCCCC3D0A49
:1004C000D7233C17B7D13877CC2B329595E6241F2C
:1004D000B14F0A000020410000C84200401C4620E5
:1004E000BCBE4CCA1B0E5AAEC59D7400407A10F3B8
:1004F0005A00A0724E18090010A5D4E80000E87652
:1005000048170000E40B54020000CA9A3B000000A8
:10051000E1F505000080969800000040420F0000C1
:1005200000A08601000000102700000000E8030082
:100530000000006400000000000A0000000000014C
:1005400000000000002C76D888DC674F0823DFC14C
:10055000DFAE59E1B1B796E5E3E453C63AE6519907
:100560007696E8E6C28426EB898C9B62ED407C6F30
:10057000FCEFBC9C9F40F2BAA56FA5F490055A2AE7
:10058000F75C936B6CF9676DC11BFCE0E40D47FEF3
:10059000F520E6B500D0ED902E03009435770500E8
:1005A00080841E080000204E0A000000C80C33336F
:1005B00033330F986E12831141EF8D2114893BE67E
:1005C0005516CFFEE6DB18D1844B381BF77C1D9007
:1005D0001DA4BBE424203284725E228100C9F12470
:1005E000ECA1E53D274649524D574152455F4E41EA
:1005F0004D453A54696E79472C204649524D574132
:1006000052455F55524C3A687474707325253341D6
:100610002F2F6769746875622E636F6D2F73796E03
:10062000746865746F732F54696E79472C2046493E
:10063000524D574152455F56455253494F4E3A2508
:10064000302E32662C204649524D574152455F426A
:1006500055494C443A25302E32662C2048415244AC
:10066000574152455F504C4154464F524D3A253008
:100670002E32662C2048415244574152455F564520
:100680005253494F4E3A25302E32660A006F6B2086
:10069000543A25640A005B257325735D2025732079
:1006A000257320706F736974696F6E2531382E332E
:1006B0006625730A005B257325735D20257320254D
:1006C00073206F66667365742532302E336625732A
:1006D0000A005B257325735D202573207A65726F90
:1006E000206261636B6F66662531392E3366257330
:1006F0000A005B257325735D202573206C6174638C
:1007000068206261636B6F66662531382E3366251B
:10071000730A005B257325735D202573206C61745B
:1007200063682076656C6F636974792531332E3088
:100730006625732F6D696E0A005B257325735D2036
:100740002573207365617263682076656C6F6369D9
:1007500074792531322E306625732F6D696E0A004B
:100760005B257325735D2025732073776974636837
:10077000206D617825313764205B303D6F66662CD3
:10078000313D686F6D696E672C323D6C696D6974BF
:100790002C333D6C696D69742B686F6D696E675D94
:1007A0000A005B257325735D2025732073776974B8
:1007B0006368206D696E25313764205B303D6F665C
:1007C000662C313D686F6D696E672C323D6C696DCA
:1007D00069742C333D6C696D69742B686F6D696E3B
:1007E000675D0A005B257325735D202573207261A8
:1007F000646975732076616C75652532302E3466B8
:1008000025730A005B257325735D202573206A75A7
:100810006E6374696F6E20646576696174696F6E6A
:100820002531342E3466257320286C617267657219
:1008300020697320666173746572290A005B2573F1
:1008400025735D202573206A65726B20686F6D6962
:100850006E672531362E306625732F6D696E5E33D7
:10086000202A2031206D696C6C696F6E0A005B254F
:100870007325735D202573206A65726B206D617826
:10088000696D756D2531352E306625732F6D696E56
:100890005E33202A2031206D696C6C696F6E0A000E
:1008A0005B257325735D2025732074726176656CFA
:1008B000206D696E696D756D2531372E3366257330
:1008C0000A005B257325735D2025732074726176A1
:1008D000656C206D6178696D756D2531372E3366D5
:1008E00025730A005B257325735D202573207665CB
:1008F0006C6F63697479206D6178696D756D2531F0
:10090000312E306625732F6D696E0A005B257325C5
:10091000735D202573206665656472617465206D62
:100920006178696D756D2531312E306625732F6DB7
:10093000696E0A005B257325735D2025732061783D
:100940006973206D6F6465253138642025730A0052
:100950005B6D615D20206D696E206172632073653F
:10096000676D656E742531382E336625730A005B1A
:10097000736C5D2020736F6674206C696D697420E0
:10098000656E61626C65253132640A005B63745D7B
:10099000202063686F7264616C20746F6C65726193
:1009A0006E63652531372E346625730A005B6A61F4
:1009B0005D20206A756E6374696F6E206163636584
:1009C0006C65726174696F6E25382E306625730A06
:1009D000005B6764695D2064656661756C7420679F
:1009E000636F64652064697374616E6365206D6F05
:1009F0006465253264205B303D4739302C313D47FA
:100A000039315D0A005B6770615D20646566617500
:100A10006C742067636F6465207061746820636F15
:100A20006E74726F6C253364205B303D4736312C19
:100A3000313D4736312E312C323D4736345D0A0088
:100A40005B67636F5D2064656661756C74206763C6
:100A50006F646520636F6F72642073797374656D62
:100A6000253364205B312D3620284735342D47351A
:100A700039295D0A005B67756E5D20646566617586
:100A80006C742067636F646520756E697473206D84
:100A90006F6465253564205B303D4732302C313D35
:100AA0004732315D0A005B67706C5D20646566618A
:100AB000756C742067636F646520706C616E65256A
:100AC000313064205B303D4731372C313D47313880
:100AD0002C323D4731395D0A00256320776F726BF8
:100AE000206F66667365743A2531322E336625733E
:100AF0000A002563206D616368696E6520706F73FD
:100B00006E3A2531312E336625730A002563207035
:100B10006F736974696F6E3A2531352E33662573AC
:100B20000A00546F6F6C206E756D62657220202014
:100B30002020202020202025640A004665656420AE
:100B400072617465206D6F64653A2020202020203A
:100B500025730A0044697374616E6365206D6F6468
:100B6000653A2020202020202025730A005061743F
:100B700068204D6F64653A2020202020202020200E
:100B8000202025730A00506C616E653A20202020D9
:100B9000202020202020202020202025730A004D06
:100BA0006F74696F6E206D6F64653A20202020207D
:100BB0002020202025730A00436F6F7264696E61E4
:100BC00074652073797374656D3A20202025730A4B
:100BD00000556E6974733A202020202020202020A8
:100BE00020202020202025730A00486F6D696E6741
:100BF0002073746174653A20202020202020202555
:100C0000730A0046656564686F6C64207374617470
:100C1000653A20202020202025730A004D6F74693A
:100C20006F6E2073746174653A202020202020208C
:100C30002025730A004379636C65207374617465C1
:100C40003A20202020202020202025730A005261F5
:100C500077206D616368696E652073746174653AAD
:100C600020202025730A004D616368696E6520733A
:100C7000746174653A2020202020202025730A000A
:100C80004C696E65206E756D6265723A2531302E45
:100C900030660A004665656420726174653A2531E4
:100CA000362E336625732F6D696E0A0056656C6F9C
:100CB000636974793A2531372E336625732F6D6950
:100CC0006E0A001A0DE90CC90C473935202D207524
:100CD0006E6974732D7065722D7265766F6C7574A4
:100CE000696F6E206D6F646500473934202D207563
:100CF0006E6974732D7065722D6D696E75746520E3
:100D00006D6F64652028692E652E206665656472A6
:100D1000617465206D6F64652900473933202D208B
:100D2000696E76657273652074696D65206D6F6498
:100D30006500560D360D473931202D20696E6372DE
:100D4000656D656E74616C2064697374616E636552
:100D5000206D6F646500473930202D206162736F0C
:100D60006C7574652064697374616E6365206D6F62
:100D7000646500A70D8F0D790D473634202D206353
:100D80006F6E74696E756F7573206D6F6465004763
:100D900036312E31202D2065786163742073746F95
:100DA00070206D6F646500473631202D20657861B5
:100DB00063742070617468206D6F646500E10DD20A
:100DC0000DC30D473139202D20595A20706C616EAA
:100DD0006500473138202D20585A20706C616E65AF
:100DE00000473137202D20585920706C616E650006
:100DF0006D0E5B0E420E210EFA0D473830202D206D
:100E000063616E63656C206D6F74696F6E206D6FCA
:100E1000646520286E6F6E6520616374697665294C
:100E200000473320202D20636F756E746572206338
:100E30006C6F636B776973652061726320666565AB
:100E40006400473220202D20636C6F636B776973D9
:100E50006520617263206665656400473120202D3E
:100E6000206C696E6561722066656564004730209C
:100E7000202D206C696E65617220747261766572D6
:100E8000736520287365656B2900340F1A0F000FF6
:100E9000E60ECC0EB20E980E473539202D20636F2A
:100EA0006F7264696E6174652073797374656D2007
:100EB0003600473538202D20636F6F7264696E618C
:100EC00074652073797374656D203500473537205C
:100ED0002D20636F6F7264696E617465207379731E
:100EE00074656D203400473536202D20636F6F7296
:100EF00064696E6174652073797374656D20330065
:100F0000473535202D20636F6F7264696E6174659B
:100F10002073797374656D203200473534202D209D
:100F2000636F6F7264696E61746520737973746541
:100F30006D203100473533202D206D616368696E67
:100F40006520636F6F7264696E6174652073797375
:100F500074656D00670F610F5A0F486F6D696E679A
:100F600000486F6D6564004E6F7420486F6D656456
:100F7000009B0F960F910F8B0F860F7D0F456E64B0
:100F800020486F6C6400486F6C6400446563656C56
:100F900000506C616E0053796E63004F666600AE60
:100FA0000FAA0FA50F486F6C640052756E00537442
:100FB0006F7000D80FCE0FC80FC10FBD0F4A6F67FB
:100FC00000486F6D696E670050726F6265004D6119
:100FD0006368696E696E67004F6666000E100810E0
:100FE0000210FD0FF90FF30FEA0F53687574646F69
:100FF000776E004379636C6500456E640053746FCF
:101000007000416C61726D00526561647900496ED7
:10101000697469616C697A696E670071106B10653B
:101020001060105C10581053104D10471040103CC9
:1010300010331053687574646F776E004A6F6700E1
:10104000486F6D696E67004379636C650050726F1D
:10105000626500486F6C640052756E00456E6400F6
:1010600053746F7000416C61726D005265616479F8
:1010700000496E697469616C697A696E67009810DD
:101080008210473231202D206D696C6C696D65745A
:101090006572206D6F646500473230202D20696EC7
:1010A00063686573206D6F646500D210C710BB1054
:1010B000B2105B7261646975735D005B696E68692B
:1010C00062697465645D005B7374616E646172640F
:1010D0005D005B64697361626C65645D00EC10E8DF
:1010E00010E3102064656700206D6D0020696E00BC
:1010F0002A2A2A204E4F54494345202A2A2A205280
:101100006573657474696E672062617564207261CD
:10111000746520746F202573005B6E65745D206EAE
:101120006574776F726B206D6F646525313764204D
:101130005B303D6D61737465725D0A005B62617561
:10114000645D20555342206261756420726174654C
:1011500025313564205B313D393630302C323D311C
:10116000393230302C333D33383430302C343D3547
:10117000373630302C353D3131353230302C363D3C
:101180003233303430305D0A005B65785D20206595
:101190006E61626C6520666C6F7720636F6E74722F
:1011A0006F6C25313064205B303D6F66662C313DBD
:1011B000584F4E2F584F46462C20323D5254532FF5
:1011C0004354535D0A005B65655D2020656E616276
:1011D0006C65206563686F25313864205B303D6F36
:1011E00066662C313D6F6E5D0A005B65635D202095
:1011F000657870616E64204C4620746F2043524CB9
:1012000046206F6E205458253664205B303D6F6653
:10121000662C313D6F6E5D0A004C12471241123B45
:101220001235122E12271232333034303000313161
:1012300035323030003537363030003338343030E6
:1012400000313932303000393630300030007379B7
:1012500073006662000000000702A57BF75F2F6045
:101260007333291CDC437379730066760000000039
:101270000703AA7BF75F2F607733EC51783F7379D0
:1012800073006870000000000700AF7BF75FDD604F
:101290007B330000803F73797300687600000000A4
:1012A0000700B47BF75F867B7F33000000417379D2
:1012B00073006964000000000400B97B267B2F6086
:1012C0006F3300000000000000006E00000000000E
:1012D0000100215C24598D60E72B00000000000014
:1012E00000006C696E6500000100215C3B598D6057
:1012F000E72B000000000000000076656C00000095
:101300000002E15B52592F606F33000000000000C3
:1013100000006665656400000002015C8A592F6068
:101320006F3300000000000000007374617400005F
:101330000000265C95582F606F330000000000000D
:1013400000006D616373000000002B5CA2582F60E9
:101350006F33000000000000000063796373000039
:101360000000305CA8582F606F33000000000000C0
:1013700000006D6F747300000000355CAE582F6084
:101380006F330000000000000000686F6C64000014
:1013900000003A5CB4582F606F330000000000007A
:1013A0000000756E697400000000445CC0582F6036
:1013B0006F330000000000000000636F6F720000D8
:1013C0000000495CCB582F606F3300000000000024
:1013D00000006D6F6D6F000000004E5CD6582F60EE
:1013E0006F330000000000000000706C616E0000B0
:1013F0000000535CDF582F606F33000000000000D6
:1014000000007061746800000000585CEA582F60AA
:101410006F33000000000000000064697374000076
:1014200000005D5CF5582F606F3300000000000085
:10143000000066726D6F00000000625C00592F6052
:101440006F330000000000000000746F6F6C00003C
:101450000000675C0B592F606F33000000006D7057
:101460006F006D706F7800000003015EEE592F6011
:101470006F33000000006D706F006D706F790000B9
:101480000003015EEE592F606F33000000006D70A5
:101490006F006D706F7A00000003015EEE592F60DF
:1014A0006F33000000006D706F006D706F610000A1
:1014B0000003015EEE592F606F33000000006D7075
:1014C0006F006D706F6200000003015EEE592F60C7
:1014D0006F33000000006D706F006D706F6300006F
:1014E0000003015EEE592F606F3300000000706F43
:1014F0007300706F737800000003FA5DC4592F60A9
:101500006F3300000000706F7300706F737900001C
:101510000003FA5DC4592F606F3300000000706F44
:101520007300706F737A00000003FA5DC4592F6076
:101530006F3300000000706F7300706F7361000004
:101540000003FA5DC4592F606F3300000000706F14
:101550007300706F736200000003FA5DC4592F605E
:101560006F3300000000706F7300706F73630000D2
:101570000003FA5DC4592F606F33000000006F66EE
:1015800073006F66737800000003075E185A2F60BF
:101590006F33000000006F6673006F6673790000A0
:1015A0000003075E185A2F606F33000000006F665B
:1015B00073006F66737A00000003075E185A2F608D
:1015C0006F33000000006F6673006F667361000088
:1015D0000003075E185A2F606F33000000006F662B
:1015E00073006F66736200000003075E185A2F6075
:1015F0006F33000000006F6673006F667363000056
:101600000003075E185A2F606F3300000000686FF8
:101610006D00686F6D65000000003F5CBA58AF5BFD
:101620006F3300000000686F6D00686F6D78000018
:101630000000FA5D885F2F60BC2B00000000686F1F
:101640006D00686F6D7900000000FA5D885F2F60A3
:10165000BD2B00000000686F6D00686F6D7A0000A0
:101660000000FA5D885F2F60BE2B00000000686FED
:101670006D00686F6D6100000000FA5D885F2F608B
:10168000BF2B00000000686F6D00686F6D62000086
:101690000000FA5D885F2F60C02B00000000686FBB
:1016A0006D00686F6D6300000000FA5D885F2F6059
:1016B000C12B000000007072620070726265000051
:1016C00000005EC3885F2F60C22B000000007072B4
:1016D000620070726278000000035EC3F75F2F60E3
:1016E000C32B00000000707262007072627900000B
:1016F00000035EC3F75F2F60C72B0000000070720D
:1017000062007072627A000000035EC3F75F2F60B0
:10171000CB2B0000000070726200707262610000EA
:1017200000035EC3F75F2F60CF2B000000007072D4
:10173000620070726262000000035EC3F75F2F6098
:10174000D32B0000000070726200707262630000B0
:1017500000035EC3F75F2F60D72B000000006A6FA5
:1017600067006A6F6778000000005EC3845FC95B32
:10177000E12B000000006A6F67006A6F6779000064
:1017800000005EC3845FCF5BE12B000000006A6F46
:1017900067006A6F677A000000005EC3845FD55BF4
:1017A000E12B000000006A6F67006A6F676100004C
:1017B00000005EC3845FDB5BE12B000000007077FC
:1017C000720070777231000000000ABC47BB2F60C6
:1017D0006F33000000007077720070777232000083
:1017E00000000ABC47BB2F606F3300000000707719
:1017F000720070777233000000000ABC47BB2F6094
:101800006F33000000007077720070777234000050
:1018100000000ABC47BB2F606F33000000000000CF
:101820000000737200000000000096AE69AE6BAE5F
:101830006F33000000000000000071720000000023
:1018400000003FB0F2AF2F606F33000000000000D7
:101850000000716900000000000044B007B02F6074
:101860006F330000000000000000716F00000000F6
:10187000000049B023B02F606F330000000000006B
:10188000000065720000000000005EC314AB2F6012
:101890006F330000000000000000716600000000CF
:1018A00000005EC3845FAA5B6F330000000000008D
:1018B00000007278000000000000BEC3D2652F60F7
:1018C0006F3300000000000000006D73670000002F
:1018D000000075C3845F2F606F33000000000000BC
:1018E0000000636C6561720000005EC3E94FE94F60
:1018F0006F33000000000000000074657374000086
:1019000000005EC3337CDCBE6F33000000000000CB
:10191000000064656661000000005EC3557C095FDD
:101920006F330000000000000000626F6F74000061
:1019300000005EC3777C817B6F33000000000000F5
:10194000000068656C70000000005EC3FD7B2F60C6
:101950006F3300000000000000006800000000007D
:1019600000005EC3FD7B2F606F330000000031007C
:101970000000316D610000000300E0BB885F316052
:10198000D0520000000031000000317361000000FF
:101990000303E5BBF75F9ABADB526666E63F3100A8
:1019A00000003174720000000B04EBBBF75FA5BAB6
:1019B000DF523333CB4131000000316D690000004C
:1019C0000300FBBB885FB0BAD15200000041310078
:1019D000000031706F000000030000BC885F57609A
:1019E000D552000000003100000031706D00000091
:1019F000030005BC885F33BBD652000000403200B4
:101A00000000326D610000000300E0BB885F3160C0
:101A1000EF520000803F320000003273610000008E
:101A20000303E5BBF75F9ABAFA526666E63F3200F7
:101A300000003274720000000B04EBBBF75FA5BA24
:101A4000FE52F628124232000000326D690000009A
:101A50000300FBBB885FB0BAF052000000413200C7
:101A6000000032706F000000030000BC885F576008
:101A7000F452000000003200000032706D000000DF
:101A8000030005BC885F33BBF55200000040330003
:101A90000000336D610000000300E0BB885F31602F
:101AA0000E5300000040330000003373610000005B
:101AB0000303E5BBF75F9ABA19536666E63F330046
:101AC00000003374720000000B04EBBBF75FA5BA93
:101AD0001D530000A03F33000000336D690000007B
:101AE0000300FBBB885FB0BA0F5300000041330016
:101AF000000033706F000000030000BC885F576077
:101B00001353000000003300000033706D0000002C
:101B1000030005BC885F33BB145300000040340051
:101B20000000346D610000000300E0BB885F31609D
:101B30002D53000040403400000034736100000069
:101B40000303E5BBF75F9ABA38536666E63F340095
:101B500000003474720000000B04EBBBF75FA5BA01
:101B60003C530000344334000000346D6900000031
:101B70000300FBBB885FB0BA2E5300000041340065
:101B8000000034706F000000030000BC885F5760E5
:101B90003253000000003400000034706D0000007B
:101BA000030005BC885F33BB33530000004078005E
:101BB000000078616D0000000300175D495A5B5A10
:101BC000772A0000803F7800000078766D000000E2
:101BD0000B005F5DF75FE7657C2A00606A4678006E
:101BE00000007866720000000B005A5DF75FE76541
:101BF000782A00606A467800000078746E00000061
:101C00000B03695DF75FE765842A00000000780038
:101C1000000078746D0000000B03645DF75FE765FA
:101C2000802A00005C4378000000786A6D000000A4
:101C30000B006E5DF75F475B882A00401C4578000B
:101C40000000786A680000000B00735DF75F7E5B40
:101C50008C2A00401C4678000000786A640000006E
:101C60000B04785DF75FE765942A0AD7233C780078
:101C7000000078736E0000000300825D885FBFBEC5
:101C80009B290000803F78000000787378000000F6
:101C90000300AF5D885FBFBE9C2900000000780094
:101CA00000007873760000000B00DC5DF75FE765ED
:101CB0009C2A00803B4578000000786C760000008C
:101CC0000B00E15DF75FE765A02A0000C8427800DD
:101CD0000000786C620000000B03E65DF75FE765CB
:101CE000A42A0000A04178000000787A6200000079
:101CF0000B03EB5DF75FE765A82A00004040790021
:101D0000000079616D0000000300175D495A5B5ABD
:101D1000AC2A0000803F7900000079766D00000059
:101D20000B005F5DF75FE765B12A00007A46790036
:101D300000007966720000000B005A5DF75FE765EE
:101D4000AD2A00007A467900000079746E00000028
:101D50000B03695DF75FE765B92A000000007900B1
:101D6000000079746D0000000B03645DF75FE765A8
:101D7000B52A00005C4379000000796A6D0000001C
:101D80000B006E5DF75F475BBD2A00409C45790004
:101D90000000796A680000000B00735DF75F7E5BEE
:101DA000C12A00401C4679000000796A64000000E6
:101DB0000B04785DF75FE765C92A0AD7233C7900F1
:101DC000000079736E0000000300825D885FBFBE73
:101DD0009D290000803F79000000797378000000A1
:101DE0000300AF5D885FBFBE9E2900000000790040
:101DF00000007973760000000B00DC5DF75FE7659B
:101E0000D12A00803B4579000000796C7600000003
:101E10000B00E15DF75FE765D52A0000C842790055
:101E20000000796C620000000B03E65DF75FE76578
:101E3000D92A0000A04179000000797A62000000F0
:101E40000B03EB5DF75FE765DD2A000040407A0099
:101E500000007A616D0000000300175D495A5B5A6B
:101E6000E12A0000803F7A0000007A766D000000D1
:101E70000B005F5DF75FE765E62A000048447A00E3
:101E800000007A66720000000B005A5DF75FE7659C
:101E9000E22A000048447A0000007A746E000000D4
:101EA0000B03695DF75FE765EE2A000000007A002A
:101EB00000007A746D0000000B03645DF75FE76556
:101EC000EA2A0000C8427A0000007A6A6D00000029
:101ED0000B006E5DF75F475BF22A000048427A0014
:101EE00000007A6A680000000B00735DF75F7E5B9C
:101EF000F62A00007A447A0000007A6A6400000042
:101F00000B04785DF75FE765FE2A0AD7233C7A0069
:101F100000007A736E0000000300825D885FBFBE20
:101F20009F29000000007A0000007A73780000000A
:101F30000300AF5D885FBFBEA0290000803F7A002C
:101F400000007A73760000000B00DC5DF75FE76548
:101F5000062B000048447A0000007A6C76000000EE
:101F60000B00E15DF75FE7650A2B0000C8427A00CD
:101F700000007A6C620000000B03E65DF75FE76526
:101F80000E2B0000A0417A0000007A7A6200000067
:101F90000B03EB5DF75FE765122B0000204161004A
:101FA000000061616D0000000300175D495A5B5A33
:101FB000162B0000803F6100000061766D0000007C
:101FC00003005F5DF75FDD601B2B00606A47610007
:101FD000000061667200000003005A5DF75FDD607B
:101FE000172B00803B476100000061746E00000009
:101FF0000303695DF75FE765232B000080BF610085
:10200000000061746D0000000303645DF75FDD6034
:102010001F2B0000C84361000000616A6D000000D2
:1020200003006E5DF75F475B272B0080BB466100B6
:102030000000616A680000000300735DF75F7E5B6B
:102040002B2B0080BB4661000000616A6400000029
:102050000304785DF75FDD60332BCDCCCC3D6100B0
:1020600000006172610000000B037D5DF75FDD60C1
:10207000372B0000803F6100000061736E0000009C
:102080000300825D885FBFBEA1290000803F610020
:1020900000006173780000000300AF5D885FBFBE81
:1020A000A2290000000061000000617376000000BA
:1020B0000300DC5DF75FDD603B2B0080BB4561000A
:1020C0000000616C760000000300E15DF75FDD60F9
:1020D0003F2B00007A4461000000616C6200000048
:1020E0000303E65DF75FDD60432B0000A040610065
:1020F0000000617A620000000303EB5DF75FDD60C2
:10210000472B000000406200000062616D0000008B
:102110000300175D495A5B5A4B2B00000000620018
:10212000000062766D00000003005F5DF75FDD6018
:10213000502B0000614562000000626672000000E2
:1021400003005A5DF75FDD604C2B000061456200C3
:10215000000062746E0000000303695DF75FE765CD
:10216000582B000080BF6200000062746D00000008
:102170000303645DF75FDD60542B000080BF6200E5
:102180000000626A6D00000003006E5DF75F475B50
:102190005C2B0000A04162000000626A6400000045
:1021A0000300785DF75FDD60682B0AD7233C62008F
:1021B00000006272610000000B037D5DF75FDD606F
:1021C0006C2B0000803F6300000063616D00000025
:1021D0000300175D495A5B5A802B00000000630022
:1021E000000063766D00000003005F5DF75FDD6057
:1021F000852B0000614563000000636672000000EB
:1022000003005A5DF75FDD60812B000061456300CC
:10221000000063746E0000000303695DF75FE7650B
:102220008D2B000080BF6300000063746D00000010
:102230000303645DF75FDD60892B000080BF6300EE
:102240000000636A6D00000003006E5DF75F475B8E
:10225000912B0000A04163000000636A640000004D
:102260000300785DF75FDD609D2B0AD7233C630098
:1022700000006372610000000B037D5DF75FDD60AD
:10228000A12B0000803F70310000703163736C003F
:10229000030022AAF75FDD60B05100007A4470317C
:1022A0000000703163736800030027AAF75FDD60E8
:1022B000B4510000FA4470310000703163706C005A
:1022C00003032CAAF75FDD60B8510000003E7031B7
:1022D0000000703163706800030331AAF75FDD60AE
:1022E000BC51CDCC4C3E70310000703177736C0026
:1022F000030036AAF75FDD60C05100007A447031F8
:10230000000070317773680003003BAAF75FDD605F
:10231000C4510000FA4470310000703177706C00D5
:10232000030340AAF75FDD60C8510000003E703132
:102330000000703177706800030345AAF75FDD6025
:10234000CC51CDCC4C3E703100007031706F6600C6
:1023500003034AAAF75FDD60D051CDCCCC3D673591
:1023600034006735347800000B03F05DF75FE765F4
:10237000E729000000006735340067353479000034
:102380000B03F05DF75FE765EB29000000006735A0
:1023900034006735347A00000B03F05DF75FE765C2
:1023A000EF29000000006735340067353461000014
:1023B0000B03F05DF75FE765F32900000000673568
:1023C00034006735346200000B03F05DF75FE765AA
:1023D000F7290000000067353400673534630000DA
:1023E0000B03F05DF75FE765FB2900000000673530
:1023F00035006735357800000B03F05DF75FE76562
:10240000FF290000DC42673535006735357900006B
:102410000B03F05DF75FE765032A0000DC426735D8
:1024200035006735357A00000B03F05DF75FE7652F
:10243000072A000000006735350067353561000068
:102440000B03F05DF75FE7650B2A000000006735BE
:1024500035006735356200000B03F05DF75FE76517
:102460000F2A00000000673535006735356300002E
:102470000B03F05DF75FE765132A00000000673586
:1024800036006735367800000B03F05DF75FE765CF
:10249000172A0000DC4267353600673536790000C0
:1024A0000B03F05DF75FE7651B2A0000A04167356D
:1024B00036006735367A00000B03F05DF75FE7659D
:1024C0001F2A000020C167353600673536610000DD
:1024D0000B03F05DF75FE765232A00000000673516
:1024E00036006735366200000B03F05DF75FE76585
:1024F000272A000000006735360067353663000084
:102500000B03F05DF75FE7652B2A000000006735DD
:1025100037006735377800000B03F05DF75FE7653C
:102520002F2A000000006735370067353779000033
:102530000B03F05DF75FE765332A000000006735A5
:1025400037006735377A00000B03F05DF75FE7650A
:10255000372A000000006735370067353761000013
:102560000B03F05DF75FE7653B2A0000000067356D
:1025700037006735376200000B03F05DF75FE765F2
:102580003F2A0000000067353700673537630000D9
:102590000B03F05DF75FE765432A00000000673535
:1025A00038006735387800000B03F05DF75FE765AA
:1025B000472A000000006735380067353879000089
:1025C0000B03F05DF75FE7654B2A000000006735FD
:1025D00038006735387A00000B03F05DF75FE76578
:1025E0004F2A000000006735380067353861000069
:1025F0000B03F05DF75FE765532A000000006735C5
:1026000038006735386200000B03F05DF75FE7655F
:10261000572A00000000673538006735386300002E
:102620000B03F05DF75FE7655B2A0000000067358C
:1026300039006735397800000B03F05DF75FE76517
:102640005F2A0000000067353900673539790000DE
:102650000B03F05DF75FE765632A00000000673554
:1026600039006735397A00000B03F05DF75FE765E5
:10267000672A0000000067353900673539610000BE
:102680000B03F05DF75FE7656B2A0000000067351C
:1026900039006735396200000B03F05DF75FE765CD
:1026A0006F2A000000006735390067353963000084
:1026B0000B03F05DF75FE765732A000000006739E0
:1026C00032006739327800000103F05DF75F2F6058
:1026D000592C000000006739320067393279000058
:1026E0000103F05DF75F2F605D2C0000000067398B
:1026F00032006739327A00000103F05DF75F2F6026
:10270000612C000000006739320067393261000037
:102710000103F05DF75F2F60652C00000000673952
:1027200032006739326200000103F05DF75F2F600D
:10273000692C0000000067393200673932630000FD
:102740000103F05DF75F2F606D2C00000000673221
:1027500038006732387800000103F55DF75F2F60BD
:10276000712C0000000067323800673238790000B1
:102770000103F55DF75F2F60752C000000006732E4
:1027800038006732387A00000103F55DF75F2F608B
:10279000792C000000006732380067323861000091
:1027A0000103F55DF75F2F607D2C000000006732AC
:1027B00038006732386200000103F55DF75F2F6073
:1027C000812C000000006732380067323863000057
:1027D0000103F55DF75F2F60852C00000000673373
:1027E00030006733307800000103F55DF75F2F603C
:1027F000892C000000006733300067333079000017
:102800000103F55DF75F2F608D2C0000000067333A
:1028100030006733307A00000103F55DF75F2F6009
:10282000912C0000000067333000673330610000F6
:102830000103F55DF75F2F60952C00000000673302
:1028400030006733306200000103F55DF75F2F60F1
:10285000992C0000000067333000673330630000BC
:102860000103F55DF75F2F609D2C000000006A6991
:1028700064006A696461000000005EC3D05FB660F6
:102880009733000000006A6964006A6964620000AE
:1028900000005EC3D05FB6609B33000000006A6931
:1028A00064006A696463000000005EC3D05FB660C4
:1028B0009F33000000006A6964006A696464000074
:1028C00000005EC3D05FB660A333000000007379E0
:1028D00073006A61000000000F00B25CF75FE765FB
:1028E000B5290024F4497379730063740000000073
:1028F0000F04D25CF75FE765B9290AD7233C7379E7
:102900007300736C000000000700F25C885F3160A8
:10291000BD2900000000737973007374000000008B
:102920000700D8BE885FBABE902900000000737906
:1029300073006D74000000000702DCBBF75F63BB2F
:10294000CC5200000040000000006D650000000057
:10295000000075C3BEBBBEBB6F33000000000000AB
:1029600000006D6400000000000075C3A0BBA0BBA8
:102970006F330000000073797300656A0000000087
:102980000700A982885F5760243300000000737934
:1029900073006A76000000000700AE82885F3A820A
:1029A0003E3700008040737973006A7300000000B6
:1029B0000700B382885F576040370000803F73791B
:1029C00073007476000000000700FAC3885F576048
:1029D0003F540000803F737973007176000000005F
:1029E00007004EB0885F7B600552000000007379DD
:1029F000730073760000000007009DAE885F696079
:102A000012520000803F7379730073690000000068
:102A1000070098AEAC5F6DAE13520000FA437379B5
:102A2000730065630000000007003066885F496638
:102A30002533000000007379730065650000000015
:102A400007003566885F81662633000000007379D1
:102A5000730065780000000007003A66885F9A6599
:102A600027330000803F7379730062617564000052
:102A700004003F66885F4E6528330000A0407379EC
:102A800073006E657400000007004466885F316063
:102A90008633000000007379730067706C000000DB
:102AA0000700995C885F6960CB290000000073799A
:102AB000730067756E00000007009E5C885F5760BA
:102AC000CC290000803F7379730067636F000000BA
:102AD0000700A35C885F3160CA290000803F7379DA
:102AE00073006770610000000700A85C885F696080
:102AF000CD2900000040737973006764690000000D
:102B00000700AD5C885F5760CE2900000000000020
:102B1000000067630000000000005EC3457A557A3C
:102B20006F3300000000000000006D610000000035
:102B30000B04F75CF75FE765C229CDCCCC3D000004
:102B40000000666400000000030099C3885F5760BE
:102B50003F3700000000756461007564613000005B
:102B60000300BEC3D05FB6602A3300000000756466
:102B700061007564613100000300BEC3D05FB660C0
:102B80002E3300000000756461007564613200003E
:102B90000300BEC3D05FB66032330000000075642E
:102BA00061007564613300000300BEC3D05FB6608E
:102BB0003633000000007564620075646230000006
:102BC0000300BEC3D05FB6603A33000000007564F6
:102BD00062007564623100000300BEC3D05FB6605E
:102BE0003E330000000075646200756462320000CC
:102BF0000300BEC3D05FB6604233000000007564BE
:102C000062007564623300000300BEC3D05FB6602B
:102C10004633000000007564630075646330000093
:102C20000300BEC3D05FB6604A3300000000756485
:102C300063007564633100000300BEC3D05FB660FB
:102C40004E33000000007564630075646332000059
:102C50000300BEC3D05FB66052330000000075644D
:102C600063007564633300000300BEC3D05FB660C9
:102C70005633000000007564640075646430000021
:102C80000300BEC3D05FB6605A3300000000756415
:102C900064007564643100000300BEC3D05FB66099
:102CA0005E330000000075646400756464320000E7
:102CB0000300BEC3D05FB6606233000000007564DD
:102CC00064007564643300000300BEC3D05FB66067
:102CD0006633000000005F7465005F746578000073
:102CE0000002DBC3F75F2F60754F000000005F74C8
:102CF00065005F74657900000002DBC3F75F2F6039
:102D0000794F000000005F7465005F74657A000011
:102D10000002DBC3F75F2F607D4F000000005F748F
:102D200065005F74656100000002DBC3F75F2F6020
:102D3000814F000000005F7465005F7465620000F1
:102D40000002DBC3F75F2F60854F000000005F7457
:102D500065005F74656300000002DBC3F75F2F60EE
:102D6000894F000000005F7472005F747278000089
:102D70000002DBC3F75F2F609A50000000005F7411
:102D800072005F74727900000002DBC3F75F2F608E
:102D90009E50000000005F7472005F74727A000041
:102DA0000002DBC3F75F2F60A250000000005F74D9
:102DB00072005F74726100000002DBC3F75F2F6076
:102DC000A650000000005F7472005F747262000021
:102DD0000002DBC3F75F2F60AA50000000005F74A1
:102DE00072005F74726300000002DBC3F75F2F6044
:102DF000AE50000000005F7473005F747331000018
:102E00000002DBC3F75F2F600550000000005F7019
:102E100073005F70733100000002DBC3F75F2F6047
:102E20001550000000005F6373005F6373310000A2
:102E30000002DBC3F75F2F602550000000005F65D4
:102E400073005F65733100000002DBC3F75F2F6022
:102E50003550000000005F7873005F787331000028
:102E60000002DBC3F75F2F606753000000005F665E
:102E700065005F66653100000002DBC3F75F2F600D
:102E80004550000000005F7473005F7473320000EF
:102E90000002DBC3F75F2F600950000000005F7085
:102EA00073005F70733200000002DBC3F75F2F60B6
:102EB0001950000000005F6373005F63733200000D
:102EC0000002DBC3F75F2F602950000000005F6540
:102ED00073005F65733200000002DBC3F75F2F6091
:102EE0003950000000005F7873005F787332000093
:102EF0000002DBC3F75F2F607F53000000005F66B6
:102F000065005F66653200000002DBC3F75F2F607B
:102F10004950000000005F7473005F747333000059
:102F20000002DBC3F75F2F600D50000000005F70F0
:102F300073005F70733300000002DBC3F75F2F6024
:102F40001D50000000005F6373005F637333000077
:102F50000002DBC3F75F2F602D50000000005F65AB
:102F600073005F65733300000002DBC3F75F2F60FF
:102F70003D50000000005F7873005F7873330000FD
:102F80000002DBC3F75F2F609753000000005F660D
:102F900065005F66653300000002DBC3F75F2F60EA
:102FA0004D50000000005F7473005F7473340000C4
:102FB0000002DBC3F75F2F601150000000005F705C
:102FC00073005F70733400000002DBC3F75F2F6093
:102FD0002150000000005F6373005F6373340000E2
:102FE0000002DBC3F75F2F603150000000005F6517
:102FF00073005F65733400000002DBC3F75F2F606E
:103000004150000000005F7873005F787334000067
:103010000002DBC3F75F2F60AF53000000005F6664
:1030200065005F66653400000002DBC3F75F2F6058
:10303000515000000000000000005F64616D00005E
:1030400000005EC36C5C6C5C6F330000000000002D
:10305000000073653030000002005EC3AC5F8D601D
:103060001E520000000000000000736530310000B7
:1030700002005EC3AC5F8D602052000000000000C3
:10308000000073653032000002005EC3AC5F8D60EB
:103090002252000000000000000073653033000081
:1030A00002005EC3AC5F8D6024520000000000008F
:1030B000000073653034000002005EC3AC5F8D60B9
:1030C000265200000000000000007365303500004B
:1030D00002005EC3AC5F8D6028520000000000005B
:1030E000000073653036000002005EC3AC5F8D6087
:1030F0002A52000000000000000073653037000015
:1031000002005EC3AC5F8D602C5200000000000026
:10311000000073653038000002005EC3AC5F8D6054
:103120002E520000000000000000736530390000DE
:1031300002005EC3AC5F8D603052000000000000F2
:10314000000073653130000002005EC3AC5F8D602B
:1031500032520000000000000000736531310000B1
:1031600002005EC3AC5F8D603452000000000000BE
:10317000000073653132000002005EC3AC5F8D60F9
:10318000365200000000000000007365313300007B
:1031900002005EC3AC5F8D6038520000000000008A
:1031A000000073653134000002005EC3AC5F8D60C7
:1031B0003A52000000000000000073653135000045
:1031C00002005EC3AC5F8D603C5200000000000056
:1031D000000073653136000002005EC3AC5F8D6095
:1031E0003E5200000000000000007365313700000F
:1031F00002005EC3AC5F8D60405200000000000022
:10320000000073653138000002005EC3AC5F8D6062
:1032100042520000000000000000736531390000D8
:1032200002005EC3AC5F8D604452000000000000ED
:10323000000073653230000002005EC3AC5F8D6039
:1032400046520000000000000000736532310000AB
:1032500002005EC3AC5F8D604852000000000000B9
:10326000000073653232000002005EC3AC5F8D6007
:103270004A52000000000000000073653233000075
:1032800002005EC3AC5F8D604C5200000000000085
:10329000000073653234000002005EC3AC5F8D60D5
:1032A0004E5200000000000000007365323500003F
:1032B00002005EC3AC5F8D60505200000000000051
:1032C000000073653236000002005EC3AC5F8D60A3
:1032D0005252000000000000000073653237000009
:1032E00002005EC3AC5F8D6054520000000000001D
:1032F000000073653238000002005EC3AC5F8D6071
:1033000056520000000000000000736532390000D2
:1033100002005EC3AC5F8D605852000000000000E8
:10332000000073797300000000005EC3BF621A6181
:103330006F3300000000000000007031000000004A
:1033400000005EC3BF621A616F330000000000001E
:10335000000031000000000000005EC3BF621A617F
:103360006F33000000000000000032000000000089
:1033700000005EC3BF621A616F33000000000000EE
:10338000000033000000000000005EC3BF621A614D
:103390006F33000000000000000034000000000057
:1033A00000005EC3BF621A616F33000000000000BE
:1033B000000078000000000000005EC3BF621A61D8
:1033C0006F330000000000000000790000000000E2
:1033D00000005EC3BF621A616F330000000000008E
:1033E00000007A000000000000005EC3BF621A61A6
:1033F0006F330000000000000000610000000000CA
:1034000000005EC3BF621A616F330000000000005D
:10341000000062000000000000005EC3BF621A618D
:103420006F33000000000000000063000000000097
:1034300000005EC3BF621A616F330000000000002D
:10344000000067353400000000005EC3BF621A61EF
:103450006F330000000000000000673535000000F9
:1034600000005EC3BF621A616F33000000000000FD
:10347000000067353600000000005EC3BF621A61BD
:103480006F330000000000000000673537000000C7
:1034900000005EC3BF621A616F33000000000000CD
:1034A000000067353800000000005EC3BF621A618B
:1034B0006F33000000000000000067353900000095
:1034C00000005EC3BF621A616F330000000000009D
:1034D000000067393200000000005EC3BF621A615D
:1034E0006F33000000000000000067323800000069
:1034F00000005EC3BF621A616F330000000000006D
:10350000000067333000000000005EC3BF621A6134
:103510006F3300000000000000006D706F000000BD
:1035200000005EC3BF621A616F330000000000003C
:103530000000706F7300000000005EC3BF621A617C
:103540006F3300000000000000006F667300000091
:1035500000005EC3BF621A616F330000000000000C
:103560000000686F6D00000000005EC3BF621A615A
:103570006F33000000000000000070726200000065
:1035800000005EC3BF621A616F33000000000000DC
:10359000000070777200000000005EC3BF621A6115
:1035A0006F3300000000000000006A6F6700000039
:1035B00000005EC3BF621A616F33000000000000AC
:1035C00000006A696400000000005EC3BF621A6107
:1035D0006F3300000000000000007564610000000F
:1035E00000005EC3BF621A616F330000000000007C
:1035F000000075646200000000005EC3BF621A61D3
:103600006F330000000000000000756463000000DC
:1036100000005EC3BF621A616F330000000000004B
:10362000000075646400000000005EC3BF621A61A0
:103630006F3300000000000000005F7465000000B0
:1036400000005EC3BF621A616F330000000000001B
:1036500000005F747200000000005EC3BF621A6168
:103660006F3300000000000000005F747300000072
:1036700000005EC3BF621A616F33000000000000EB
:1036800000005F707300000000005EC3BF621A613B
:103690006F3300000000000000005F637300000053
:1036A00000005EC3BF621A616F33000000000000BB
:1036B00000005F657300000000005EC3BF621A6116
:1036C0006F3300000000000000005F78730000000E
:1036D00000005EC3BF621A616F330000000000008B
:1036E00000005F666500000000005EC3BF621A61F3
:1036F0006F3300000000000000006D0000000000BB
:1037000000005EC306652F606F33000000000000FC
:10371000000071000000000000005EC3EC642F6038
:103720006F3300000000000000006F000000000088
:1037300000005EC3D2642F606F3300000000000001
:10374000000024000000000000005EC320652F6020
:103750006F3300000000456E64206F6620636F6D5C
:103760006D616E642066696C650A00486F6D696EF4
:1037700067206572726F72202D2025632061786941
:10378000732073657474696E6773206D6973636FFA
:103790006E666967757265640050726F62696E6704
:1037A000206572726F72202D202563206178697305
:1037B0002063616E6E6F74206D6F76652064757224
:1037C000696E672070726F62696E67005B69645D25
:1037D000202054696E7947204944253330730A000C
:1037E0005B68765D2020686172647761726520761F
:1037F000657273696F6E2531362E32660A005B681A
:10380000705D2020686172647761726520706C6100
:1038100074666F726D2531352E32660A005B6676EE
:103820005D20206669726D776172652076657273BE
:10383000696F6E2531362E32660A005B66625D2046
:10384000206669726D77617265206275696C6425A6
:1038500031382E32660A00456E7465722024626F1C
:103860006F743D3120746F20656E746572207468CA
:103870006520626F6F74206C6F616465722E0A0040
:103880000A0A0A2323232054696E794720424F4FA6
:1038900054204C4F414445522048656C70202323EE
:1038A000230A00456E7465722024646566613D31AB
:1038B00020746F2072657365742074686520737955
:1038C0007374656D20746F2074686520666163741D
:1038D0006F72792064656661756C742076616C75B1
:1038E00065732E0A546869732077696C6C206F7653
:1038F0006572777269746520616E79206368616EA4
:1039000067657320796F752068617665206D6164E5
:10391000652E0A000A0A0A2323232054696E794778
:1039200020524553544F52452044454641554C542E
:10393000532048656C70202323230A00496E766F5C
:103940006B652073656C66207465737420627920E2
:10395000656E746572696E672024746573743D4E7C
:10396000207768657265204E206973206F6E652030
:103970006F663A0A202024746573743D31202073E9
:103980006D6F6B6520746573740A202024746573F1
:10399000743D322020686F6D696E672074657374A2
:1039A00020202028796F75206D75737420747269DA
:1039B0007020686F6D696E672073776974636865DE
:1039C00073290A202024746573743D332020737199
:1039D00075617265207465737420202028612073DE
:1039E0006572696573206F662073717561726573A6
:1039F000290A202024746573743D34202061726389
:103A0000207465737420202020202028736F6D653A
:103A1000206C6172676520636972636C6573290A43
:103A2000202024746573743D3520206477656C6CA8
:103A3000207465737420202020286D6F76657320B4
:103A40007370616365642062792031207365636FF0
:103A50006E64206477656C6C73290A202024746579
:103A600073743D36202066656564686F6C642074ED
:103A70006573742028656E746572202120616E6400
:103A8000207E20746F20686F6C6420616E642072E9
:103A90006573746172742C207265737065637469E8
:103AA00076656C79290A202024746573743D37206B
:103AB000204D20636F646573207465737420202823
:103AC0004D20636F64657320696E7465726D696EF5
:103AD000676C65642077697468206D6F76657329FB
:103AE0000A202024746573743D3820204A534F4EB9
:103AF00020746573742020202020286D6F74696FF6
:103B00006E20746573742072756E207573696E67AC
:103B1000204A534F4E20636F6D6D616E6473290AA6
:103B2000202024746573743D392020696E76657297
:103B300073652074696D6520746573740A20202490
:103B4000746573743D313020726F74617279206DC9
:103B50006F74696F6E20746573740A202024746515
:103B600073743D313120736D616C6C206D6F7665BF
:103B70007320746573740A202024746573743D3156
:103B80003220736C6F77206D6F7665732074657368
:103B9000740A202024746573743D313320636F6F81
:103BA0007264696E6174652073797374656D206FDA
:103BB0006666736574207465737420284739322CE7
:103BC000204735342D473539290A0A5465737473F3
:103BD00020617373756D6520612063656E74657215
:103BE0006564205859206F726967696E20616E6440
:103BF000206174206C656173742038306D6D2063B2
:103C00006C656172616E636520696E20616C6C2009
:103C1000646972656374696F6E730A546573747353
:103C200020617373756D65205A206861732061741B
:103C3000206C656173742034306D6D20706F736912
:103C4000697469766520636C656172616E63650A8B
:103C50005465737473207374617274207769746827
:103C60002061204730205830205930205A30206DB4
:103C70006F76650A486F6D696E6720697320746896
:103C80006520657863657074696F6E2E204E6F20B5
:103C9000696E697469616C20706F736974696F6EA5
:103CA000206F7220636C656172616E636520697359
:103CB00020617373756D65640A000A0A0A23232361
:103CC0002054696E79472053454C4620544553543F
:103CD0002048656C70202323230A00456163682017
:103CE0002420636F6D6D616E642061626F76652064
:103CF000616C736F20646973706C61797320746890
:103D00006520746F6B656E20666F722065616368F5
:103D10002073657474696E6720696E205B205D2076
:103D2000627261636B6574730A546F20766965779C
:103D30002073657474696E677320656E7465722094
:103D40006120746F6B656E3A0A0A2020243C746F00
:103D50006B656E3E0A0A466F72206578616D706C05
:103D600065202479667220746F20646973706C61B9
:103D700079207468652059206D61782066656564D6
:103D800020726174650A0A546F20757064617465ED
:103D90002073657474696E677320656E7465722034
:103DA000746F6B656E20657175616C732076616CE4
:103DB00075653A0A0A2020243C746F6B656E3E3D9F
:103DC0003C76616C75653E0A0A466F7220657861C3
:103DD0006D706C6520247966723D38303020746FC8
:103DE00020736574207468652059206D61782066A1
:103DF000656564207261746520746F2038303020EE
:103E00006D6D2F6D696E7574650A466F7220636FF4
:103E10006E66696775726174696F6E20646574613E
:103E2000696C73207365653A2068747470733A2FF7
:103E30002F6769746875622E636F6D2F73796E7466
:103E40006865746F732F54696E79472F77696B6952
:103E50002F54696E79472D436F6E6669677572617D
:103E600074696F6E0A00546865736520636F6D6DC9
:103E7000616E647320617265206163746976652088
:103E8000666F7220636F6E66696775726174696FC1
:103E90006E3A0A2020247379732053686F77207359
:103EA000797374656D202867656E6572616C292071
:103EB00073657474696E67730A2020243120202092
:103EC00053686F77206D6F746F7220312073657443
:103ED00074696E677320286F7220776861746576E5
:103EE0006572206D6F746F7220796F752077616EC7
:103EF0007420312C322C332C34290A2020247820B1
:103F0000202053686F77205820617869732073658B
:103F10007474696E677320286F72207768617465A6
:103F2000766572206178697320796F752077616E8C
:103F30007420782C792C7A2C612C622C63290A202D
:103F400020246D20202053686F7720616C6C206DD9
:103F50006F746F722073657474696E67730A2020C2
:103F6000247120202053686F7720616C6C20617869
:103F700069732073657474696E67730A2020246FF7
:103F800020202053686F7720616C6C206F66667309
:103F900065742073657474696E67730A2020242425
:103FA00020202053686F7720616C6C2073657474D7
:103FB000696E67730A2020246820202053686F7779
:103FC00020746869732068656C702073637265651E
:103FD0006E0A0A000A0A0A2323232054696E7947CD
:103FE00020434F4E46494755524154494F4E204871
:103FF000656C70202323230A000A466F72206465D3
:104000007461696C65642054696E794720696E66D5
:104010006F207365653A2068747470733A2F2F6748
:1040200069746875622E636F6D2F73796E7468653D
:10403000746F732F54696E79472F77696B692F0AF4
:10404000466F7220746865206C61746573742066B5
:1040500069726D77617265207365653A2068747462
:1040600070733A2F2F6769746875622E636F6D2FB6
:1040700073796E746865746F732F54696E79470A2B
:10408000506C65617365206C6F6720616E79206983
:10409000737375657320617420687474703A2F2F80
:1040A0007777772E73796E746865746F732E636F8C
:1040B0006D2F666F72756D730A486176652066753F
:1040C0006E0A000A4E6F74653A2054696E79472073
:1040D00067656E657261746573206175746F6D617B
:1040E00074696320737461747573207265706F7284
:1040F00074732062792064656661756C740A546813
:1041000069732063616E2062652064697361626C0B
:10411000656420627920656E746572696E6720241B
:1041200073763D300A536565207468652077696B46
:10413000692062656C6F7720666F72206D6F7265A3
:104140002064657461696C732E0A00546865736538
:1041500020636F6D6D616E647320617265206163B1
:10416000746976652066726F6D2074686520636F70
:104170006D6D616E64206C696E653A0A205E782010
:104180002020202020202020202020205265736520
:10419000742028636F6E74726F6C207829202D2034
:1041A000736F6674776172652072657365740A2037
:1041B000203F202020202020202020202020204DB3
:1041C000616368696E6520706F736974696F6E20D2
:1041D000616E642067636F6465206D6F64656C2039
:1041E00073746174650A2020242020202020202060
:1041F00020202020202053686F7720616E64207378
:10420000657420636F6E66696775726174696F6E3D
:104210002073657474696E67730A20202120202042
:104220002020202020202020202046656564686F03
:104230006C64202D2073746F70206D6F74696F6EC5
:1042400020776974686F7574206C6F73696E67206E
:10425000706F736974696F6E0A20207E20202020A1
:104260002020202020202020204379636C652053CB
:1042700074617274202D207265737461727420668B
:10428000726F6D2066656564686F6C640A202068D3
:104290002020202020202020202020202053686F54
:1042A0007720746869732068656C70207363726529
:1042B000656E0A2020246820202020202020202035
:1042C00020202053686F7720636F6E666967757270
:1042D0006174696F6E2068656C70207363726565C8
:1042E0006E0A202024746573742020202020202052
:1042F00020204C6973742073656C662D746573742B
:10430000730A202024746573743D4E2020202020E1
:10431000202052756E2073656C662D746573742051
:104320004E0A202024686F6D653D3120202020201A
:10433000202052756E206120686F6D696E67206362
:1043400079636C650A202024646566613D31202014
:104350002020202020526573746F726520616C6C80
:104360002073657474696E677320746F20226661B0
:1043700063746F7279222064656661756C74730A68
:10438000000A0A0A2323232054696E7947204865CE
:104390006C70202323230A005B6A735D20206A73FC
:1043A0006F6E2073657269616C697A6520737479C8
:1043B0006C65253964205B303D72656C617865649D
:1043C0002C313D7374726963745D0A005B6A765DBB
:1043D00020206A736F6E20766572626F73697479DC
:1043E00025313564205B303D73696C656E742C310A
:1043F0003D666F6F7465722C323D6D6573736167D6
:1044000065732C333D636F6E666967732C343D6C46
:10441000696E656E756D2C353D766572626F73657C
:104420005D0A005B656A5D2020656E61626C6520D7
:104430006A736F6E206D6F646525313364205B3065
:104440003D746578742C313D4A534F4E5D0A005CD3
:104450005556554F554A55415536552B551F5513F1
:10446000550555EE54DF54D254C654B254A5549059
:10447000547C5479547654675452543D542E541EEF
:10448000540C54F553D853BB53A2538C537B5369EC
:10449000535C534A5330532D532A532753245321EB
:1044A000531E531B531853155312530F530C5309D8
:1044B00053065303530053FD52FA52F752F452F18C
:1044C00052EE52EB52E852E552E252DF52DC52D940
:1044D00052D652D352D052CD52CA52C752C452C1F0
:1044E00052BE52BB52B852B552B252AF52AC52A9A0
:1044F00052A652A352A0529D529A52975294529150
:10450000528E526A524A5230521652FC51D851BB06
:1045100051A3518D5173514F51325120510051E9E6
:1045200050D050AE50955077505B5043503150139F
:1045300050FE4FFA4FF64FF24FEE4FEA4FE64FE282
:104540004FDE4FDA4FD64FD24FCE4FCA4FC64FC273
:104550004FBE4FA44F8A4F774F5B4F494F324F1199
:104560004F004FE04EC04EA64E8C4E754E424E153B
:104570004EF54DD34DAD4D864D6A4D4B4D314D17DA
:104580004DF24CC94CB14C864C5A4C244CEF4BDD8F
:104590004BCB4BBC4BA94B904B6E4B5C4B4A4B38B7
:1045A0004B264B144B024BF04ADE4ACC4ABA4AA87F
:1045B0004A964A844A724A6E4A6A4A664A624A5E21
:1045C0004A5A4A564A524A4E4A4A4A464A424A3E3B
:1045D0004A3A4A364A324A2E4A2A4A264A224A0E3B
:1045E0004AF049D449A94984495F495B495749532D
:1045F000494F494B49474943493F493B493749336B
:10460000492F492B4927491349F748DB48BF48A39D
:104610004887486B484F4833481748FB47DF47C334
:1046200047BF47BB47B747B347AF47AB47A74793DA
:10463000476B4744471E47F146CB469E469A4696EF
:104640004692467F465E4649464A6F6767696E678F
:10465000206379636C65206661696C6564005072E3
:104660006F626520656E64706F696E742069732077
:104670007374617274696E6720706F696E74005034
:10468000726F6265206379636C65206661696C6531
:104690006400323439003234380032343700486F25
:1046A0006D696E67204572726F72202D20486F6DA4
:1046B000696E67207377697463686573206D6973C9
:1046C000636F6E6669677572656400486F6D696EC9
:1046D00067204572726F72202D204E656761746984
:1046E0007665206C61746368206261636B6F6666D7
:1046F00000486F6D696E67204572726F72202D20C1
:1047000054726176656C206D696E2026206D61782B
:1047100020617265207468652073616D6500486F63
:104720006D696E67204572726F72202D204C617426
:1047300063682076656C6F63697479206973207A89
:1047400065726F00486F6D696E67204572726F7297
:10475000202D205365617263682076656C6F6369F4
:104760007479206973207A65726F00486F6D696E85
:1047700067204572726F72202D20426164206F7233
:10478000206E6F2061786973207370656369666954
:10479000656400486F6D696E67206379636C65209E
:1047A0006661696C65640032333900323338003237
:1047B000333700323336003233350032333400328F
:1047C000333300536F6674206C696D6974206578AB
:1047D000636565646564202D2043206D6178005316
:1047E0006F6674206C696D697420657863656564B3
:1047F0006564202D2043206D696E00536F66742020
:104800006C696D6974206578636565646564202DE5
:104810002042206D617800536F6674206C696D6969
:1048200074206578636565646564202D2042206D81
:10483000696E00536F6674206C696D6974206578C9
:10484000636565646564202D2041206D61780053A7
:104850006F6674206C696D69742065786365656442
:104860006564202D2041206D696E00536F667420B1
:104870006C696D6974206578636565646564202D75
:10488000205A206D617800536F6674206C696D69E1
:1048900074206578636565646564202D205A206DF9
:1048A000696E00536F6674206C696D697420657859
:1048B000636565646564202D2059206D617800531F
:1048C0006F6674206C696D697420657863656564D2
:1048D0006564202D2059206D696E00536F66742029
:1048E0006C696D6974206578636565646564202D05
:1048F0002058206D617800536F6674206C696D6973
:1049000074206578636565646564202D2058206D8A
:10491000696E00536F6674206C696D6974206578E8
:1049200063656564656400323139003231380032C4
:104930003137003231360032313500323134003215
:104940003133003231320032313100323130003215
:1049500030390032303800323037003230360054CF
:10496000726170657A6F696420706C616E6E6572D9
:10497000206661696C656420746F20636F6E766574
:10498000726765004C696D69742073776974636838
:1049900020686974202D2053687574646F776E20C9
:1049A0006F63637572726564004D616368696E65FB
:1049B00020697320616C61726D6564202D20436FE6
:1049C0006D6D616E64206E6F742070726F636573BD
:1049D000736564004D6F7665206C65737320746831
:1049E000616E206D696E696D756D2074696D65000D
:1049F0004D6F7665206C657373207468616E206DF1
:104A0000696E696D756D206C656E677468004765C9
:104A10006E657269632054696E7947206572726FA2
:104A200072003139390031393800313937003139C4
:104A300036003139350031393400313933003139FC
:104A400032003139310031393000313839003138F4
:104A500038003138370031383600313835003138D8
:104A600034003138330031383200313831003138D8
:104A700030005420776F726420697320696E76610C
:104A80006C6964005420776F7264206973206D69CB
:104A90007373696E67005220776F726420697320A8
:104AA000696E76616C6964005220776F7264206968
:104AB00073206D697373696E67005120776F72643C
:104AC00020697320696E76616C6964005120776F8C
:104AD0007264206973206D697373696E67004C207E
:104AE000776F726420697320696E76616C69640007
:104AF0004C20776F7264206973206D697373696EDF
:104B000067004820776F726420697320696E766150
:104B10006C6964004820776F7264206973206D6946
:104B20007373696E67004520776F72642069732024
:104B3000696E76616C6964004520776F72642069E4
:104B400073206D697373696E67004420776F7264B8
:104B500020697320696E76616C6964004420776F08
:104B60007264206973206D697373696E67005020E9
:104B7000776F7264206973206E6F74206120766194
:104B80006C696420746F6F6C206E756D6265720065
:104B90005020776F7264206973206E6F7420616E8D
:104BA00020696E7465676572005020776F726420AB
:104BB0006973206E65676174697665005020776F50
:104BC0007264206973207A65726F005020776F726B
:104BD0006420697320696E76616C69640050207787
:104BE0006F7264206973206D697373696E67004129
:104BF00072632073706563696669636174696F6E5F
:104C0000206572726F72202D20656E64706F696E00
:104C100074206973207374617274696E6720706F99
:104C2000696E7400417263207370656369666963BD
:104C30006174696F6E206572726F72202D207261CF
:104C40006469757320617263206F7574206F6620CC
:104C5000746F6C6572616E6365004172632073707E
:104C60006563696669636174696F6E206572726FEE
:104C700072202D206D697373696E67206F6666738D
:104C800065742873290041726320737065636966D7
:104C900069636174696F6E206572726F72202D2076
:104CA0006D697373696E672061786973286573290C
:104CB000004172632073706563696669636174693A
:104CC0006F6E206572726F72005370696E646C65EE
:104CD000206D757374206265207475726E696E67DD
:104CE00020666F72207468697320636F6D6D616EEA
:104CF00064005370696E646C65206D757374206216
:104D000065206F666620666F722074686973206321
:104D10006F6D6D616E64005370696E646C652053D5
:104D200020776F726420697320696E76616C6964A4
:104D3000005370696E646C65205320776F72642035
:104D40006973206D697373696E67005370696E646F
:104D50006C6520737065656420657863656564655E
:104D600064206D6178696D756D005370696E646C57
:104D7000652073706565642062656C6F77206D696E
:104D80006E696D756D0050726F6772616D6D6564EF
:104D900020706F696E742073616D6520617320638C
:104DA000757272656E7420706F696E7400437574ED
:104DB00074657220636F6D70656E736174696F6E78
:104DC0002063616E6E6F7420626520656E61626C37
:104DD0006564005265717565737465642076656CF1
:104DE0006F636974792065786365656473206C69A5
:104DF0006D697473004730206F72204731206D75E4
:104E000073742062652061637469766520666F72D1
:104E10002047353300526F74617279206178657371
:104E20002063616E6E6F7420626520757365642007
:104E300077697468207468697320636F6D6D616E43
:104E40006400496E76657273652074696D65206DC6
:104E50006F64652063616E6E6F7420626520757388
:104E600065642077697468207468697320636F6D66
:104E70006D616E64004665656472617465206E6F75
:104E800074207370656369666965640053656C6559
:104E90006374656420706C616E6520697320696E4F
:104EA00076616C69640053656C6563746564207039
:104EB0006C616E65206973206D697373696E67003C
:104EC000417869732074617267657420706F7369CB
:104ED00074696F6E20697320696E76616C69640015
:104EE000417869732074617267657420706F7369AB
:104EF00074696F6E206973206D697373696E6700E2
:104F0000417869732069732064697361626C6564B8
:104F1000004178697320697320696E76616C6964F9
:104F200020666F72207468697320636F6D6D616EA7
:104F30006400417869732063616E6E6F74206265EE
:104F40002070726573656E74004178697320776FA5
:104F50007264206D697373696E670047636F64657F
:104F6000206D6F64616C2067726F75702076696F59
:104F70006C6174696F6E004D20636F646520756E9F
:104F8000737570706F727465640047636F64652039
:104F9000636F6D6D616E6420756E737570706F7286
:104FA0007465640047656E657269632047636F646A
:104FB0006520696E707574206572726F720031328F
:104FC0003900313238003132370031323600313277
:104FD0003500313234003132330031323200313277
:104FE0003100313230003131390031313800313166
:104FF00037003131360031313500313134004A5318
:105000004F4E20737472696E6720746F6F206C6FDF
:105010006E67004A534F4E20696E70757420686148
:105020007320746F6F206D616E7920706169727387
:10503000004A534F4E2073796E7461782065727206
:105040006F7200496E7075742076616C75652072A0
:10505000616E6765206572726F7200496E7075745B
:105060002065786365656473206D6178696D756D21
:105070002076616C756500496E707574206C65737F
:1050800073207468616E206D696E696D756D207630
:10509000616C756500496E7075742065786365652F
:1050A0006473206D6178206C656E67746800436F6F
:1050B0006D6D616E64206E6F7420616363657074E2
:1050C000656420617420746869732074696D65007B
:1050D000506172616D657465722063616E6E6F748C
:1050E000206265207265616400506172616D657453
:1050F000657220697320726561642D6F6E6C790032
:10510000556E737570706F72746564206E756D6224
:105110006572206F72204A534F4E2074797065007B
:10512000426164206E756D62657220666F726D619A
:105130007400496E76616C6964206F72206D616CD9
:10514000666F726D656420636F6D6D616E6400558E
:105150006E7265636F676E697A656420636F6D6DEB
:10516000616E64206F7220636F6E666967206E6186
:105170006D650047656E6572696320617373657262
:1051800074696F6E206661696C757265004D656D3E
:105190006F7279206661756C7420646574656374E0
:1051A000656400537461636B206F766572666C6F23
:1051B0007720646574656374656400436F6E747210
:1051C0006F6C6C657220617373657274696F6E20A9
:1051D0006661696C7572650043616E6F6E696361CB
:1051E0006C206D616368696E6520617373657274AC
:1051F000696F6E206661696C75726500506C616ED6
:105200006E657220617373657274696F6E2066617A
:10521000696C757265005374657070657220617396
:1052200073657274696F6E206661696C7572650072
:10523000456E636F64657220617373657274696F24
:105240006E206661696C75726500494F20737562E6
:105250002D73797374656D20617373657274696FF2
:105260006E206661696C75726500436F6E66696772
:10527000207375622D73797374656D206173736526
:105280007274696F6E206661696C75726500383979
:1052900000383800383700383600383500383400E8
:1052A00038330038320038310038300037390037B1
:1052B000380037370037360037350037340037339A
:1052C00000373200373100373000363900363800C9
:1052D0003637003636003635003634003633003681
:1052E0003200363100363000353900353800353778
:1052F00000353600353500353400353300353200A1
:10530000353100353000343900343800343700345A
:105310003600343500343400343300343200343154
:10532000003430003339003338003337003336006F
:1053300042616420737461747573207265706F725A
:10534000742073657474696E670050657273697355
:1053500074656E6365206572726F7200466C6F6172
:1053600074206973204E414E00466C6F6174206951
:105370007320696E66696E697465004D6F7665208D
:1053800074696D65206973204E414E004D6F7665DE
:105390002074696D6520697320696E66696E697431
:1053A000650047656E657269632065786365707432
:1053B000696F6E207265706F7274004661696C650A
:1053C0006420746F2067657420706C616E6E657206
:1053D000206275666665720053797374656D20612D
:1053E0006C61726D202D207368757474696E67200E
:1053F000646F776E00496E697469616C697A617473
:10540000696F6E206661696C7572650052656164D2
:105410002D6F6E6C79206164647265737300496EE0
:1054200076616C69642041646472657373004469D9
:1054300076696465206279207A65726F00466C6FC8
:105440006174696E6720706F696E74206572726F27
:105450007200496E7465726E616C2072616E676570
:10546000206572726F7200496E7465726E616C2095
:105470006572726F720031390031380046756E63A3
:1054800074696F6E2069732073747562626564005D
:10549000456E746572696E6720626F6F74206C6F01
:1054A0006164657200496E697469616C697A696EDC
:1054B00067004275666665722066756C6C202D20EB
:1054C000666174616C004275666665722066756C13
:1054D0006C0042756666657220656D707479004E69
:1054E0006F207375636820646576696365004D613C
:1054F000782066696C652073697A652065786365D4
:10550000656465640046696C65206E6F74206F7019
:10551000656E00456E64206F662066696C650045A7
:105520006E64206F66206C696E650048617264204D
:105530007265736574005465726D696E617465643B
:1055400000436F6D706C657465004E6F6F70004541
:10555000616761696E004572726F72004F4B005B4C
:105560007031706F665D2070776D20706861736553
:10557000206F66662020202531352E3366205B3073
:105580002E2E315D0A005B70317770685D20707778
:105590006D206363772070686173652068692531C9
:1055A000352E3366205B302E2E315D0A005B703164
:1055B00077706C5D2070776D206363772070686111
:1055C0007365206C6F2531352E3366205B302E2EAF
:1055D000315D0A005B70317773685D2070776D20F4
:1055E0006363772073706565642068692531352EA3
:1055F00030662052504D0A005B703177736C5D202D
:1056000070776D20636377207370656564206C6FBD
:105610002531352E30662052504D0A005B703163C3
:1056200070685D2070776D206377207068617365A6
:10563000206869202531352E3366205B302E2E31CF
:105640005D0A005B703163706C5D2070776D206364
:1056500077207068617365206C6F202531352E339B
:1056600066205B302E2E315D0A005B7031637368FB
:105670005D2070776D2063772073706565642068A6
:1056800069202531352E30662052504D0A005B705E
:105690003163736C5D2070776D2063772073706564
:1056A0006564206C6F202531352E30662052504DB8
:1056B0000A0053595354454D205245414459004C1A
:1056C0006F6164696E6720636F6E666967732066D9
:1056D000726F6D20454550524F4D00496E69746997
:1056E000616C697A696E6720636F6E6669677320A3
:1056F000746F204F70656E506E50206578706572C3
:10570000696D656E74616C2070726F66696C65009E
:105710007B226572223A7B226662223A25302E3243
:10572000662C227374223A25642C226D7367223A08
:10573000222573227D7D0A007B65723A7B66623A80
:1057400025302E32662C73743A25642C6D73673ABB
:10575000222573227D7D0A005B71765D20207175A4
:10576000657565207265706F727420766572626F00
:1057700073697479253764205B303D6F66662C3120
:105780003D73696E676C652C323D747269706C652F
:105790005D0A00716F3A25640A0071693A25640A4E
:1057A0000071723A25640A005B73765D2020737481
:1057B00061747573207265706F72742076657262A1
:1057C0006F73697479253664205B303D6F66662C93
:1057D000313D66696C74657265642C323D76657224
:1057E000626F73655D0A005B73695D20207374618D
:1057F00074757320696E74657276616C2531342E10
:105800003066206D730A004D6F746F72202563201F
:10581000706F77657220656E61626C656420737469
:105820006174653A25322E30660A005B2573257354
:105830005D206D257320706F776572206D616E61DC
:1058400067656D656E7425313064205B303D646939
:105850007361626C65642C313D616C776179732092
:105860006F6E2C323D696E206379636C652C333D1D
:105870007768656E206D6F76696E675D0A005B25DF
:105880007325735D206D257320706F6C6172697470
:105890007925313864205B303D6E6F726D616C2C00
:1058A000313D726576657273655D0A005B2573250F
:1058B000735D206D2573206D6963726F73746570FD
:1058C0007325313664205B312C322C342C385D0A40
:1058D000005B257325735D206D25732074726176DE
:1058E000656C20706572207265766F6C7574696F77
:1058F0006E2531302E346625730A005B25732573BF
:105900005D206D2573207374657020616E676C6512
:105910002532302E336625730A005B257325735DAF
:10592000206D2573206D617020746F20617869731C
:1059300025313564205B303D582C313D592C323DAA
:105940005A2E2E2E5D0A005B6D745D20206D6F74E3
:105950006F722069646C652074696D656F7574255C
:1059600031342E3266205365630A007A59765971B4
:10597000592064656700206D6D0020696E005B73BF
:10598000745D20207377697463682074797065256D
:10599000313864205B303D4E4F2C313D4E435D0A23
:1059A000005465737420232564206E6F7420666F25
:1059B000756E640A004E362047393220583735203C
:1059C0005930205A300A4E3720463530302E300AB2
:1059D0004E3820473159302E3239315A2D322E313E
:1059E00039380A4E39205837342E37363759302E49
:1059F0003035385A2D322E3335350A4E3130205855
:105A000037342E373039592D302E3030305A2D3230
:105A10002E3337310A4E3131205837342E35323952
:105A20005A2D322E3236340A4E3132205837342E27
:105A300036333459302E3130355A2D322E333139F8
:105A40000A4E3133205837342E38343359302E3300
:105A500031345A2D322E3138330A4E3134205837F2
:105A6000352E30303059302E3437315A2D322E31D8
:105A700032360A4E31352059302E3635305A2D32D5
:105A80002E3130300A4E3136205837342E373833E5
:105A900059302E3433345A2D322E3133310A4E31AF
:105AA00037205837342E35363659302E3231375A62
:105AB0002D322E3234340A4E3138205837342E33BA
:105AC0003530592D302E3030305A2D322E3138327B
:105AD0000A4E3139205837342E3137305A2D322E74
