:100000000C947B490C949C490C94A1D10C949C4970
:100010000C949C490C949C490C949C490C949C49CC
:100020000C949C490C949C490C949C490C941CD4B1
:100030000C949C490C949C490C94F4B60C949C49E7
:100040000C949C490C949C490C949C490C949C499C
:100050000C949C490C949C490C949C490C949C498C
:100060000C949C490C94BBD10C9447D10C949C49A2
:100070000C94DACA0C9477CA0C94B3CA0C949C49B9
:100080000C94B7D20C949C490C949C490C949C49B8
:100090000C949C490C949C490C949C490C949C494C
:1000A0000C949C490C949C490C949C490C942CBD38
:1000B0000C94CCBD0C949C490C949C490C9471B844
:1000C0000C949C490C949C490C949C490C949C491C
:1000D0000C949C490C949C490C949C490C949C490C
:1000E0000C9401A90C949C490C949C490C949C4937
:1000F0000C949C490C949C490C949C490C949C49EC
:100100000C9404BD0C94A4BD0C94DCBC0C947CBD7C
:100110000C949C490C949C490C949C490C949C49CB
:100120000C949C490C949C490C949C490C949C49BB
:100130000C949C490C94F6B70C949C490C949C49E3
:100140000C949C490C949C490C949C490C949C499B
:100150000C949C490C949C490C94F7A80C949C49D1
:100160000C949C490C949C490C949C490C949C497B
:100170000C949C490C949C490C949C490C949C496B
:100180000C949C490C949C490C949C490C949C495B
:100190000C949C490C949C490C949C490C949C494B
:1001A0000C9454BD0C94F4BD0C949C490C949C4943
:1001B0000C9430B80C949C490C949C490C949C4928
:1001C0000C949C490C949C490C949C490C949C491B
:1001D0000C949C490C949C490C949C490C949C490B
:1001E0000C949C490C949C49AC73B773C273CE7346
:1001F000DA7322782278227822782278E1732278C2
:1002000022782278227822782278ED73F8730374AA
:100210000F741A7422782278227822782278227831
:1002200025742278637422782278227822782278C2
:100230002278227885742278D977227822782278D9
:1002400022782278227822782278D9772278227828
:10025000227894749A74A574B174BD74C974D574F9
:100260002278E17422782278017522782278227827
:1002700022782278227822782278227822782278AE
:1002800022782278227822780D75227822782278B6
:100290002278227822782278227822781975397586
:1002A000597587759275C979737977797F795B7993
:1002B0005F7967796B798A799D79A579A979AD7923
:1002C0001F7A8379B179B579B979BD79C5793B77E9
:1002D0005077657724782478BD76997324787A7777
:1002E0008D779F77ED779D75C3772478D2762478C4
:1002F000B177E776AF76247824782478FC76117786
:10030000267773BC7ABC81BC88BC8FBC96BC9DBC74
:10031000A4BCC0BF1EBF26BF2EBF36BF3EBF46BF58
:100320004EBF56BF5EBF66BF6EBF76BF7EBF86BF85
:10033000A6BFA6BFA6BFA6BFA6BFA6BFA6BFA6BF95
:10034000A6BFA6BFA6BFA6BFA6BFA6BFA6BFA6BF85
:10035000A6BFA6BFA6BFA6BFA6BFA6BFA6BFA6BF75
:10036000A6BFA6BFA6BFA6BFA6BFA6BFA6BFA6BF65
:10037000A6BFA6BFA6BF8EBF96BFA6BFA6BFA6BF7D
:10038000A6BFA6BFA6BFA6BFA6BFA6BFA6BFA6BF45
:10039000A6BFA6BFA6BFA6BFA6BFA6BFA6BFA6BF35
:1003A000A6BFA6BFA6BFA6BFA6BFA6BFA6BFA6BF25
:1003B000A6BFA6BFA6BFA6BFA6BFA6BFA6BFA6BF15
:1003C000A6BFA6BFA6BFA6BFA6BFA6BFA6BFA6BF05
:1003D000A6BFA6BFA6BFA6BF9EBF084AD73B3BCEBF
:1003E000016E84BCBFFDC12F3D6C74319ABD568334
:1003F0003DDA3D00C77F11BED9E4BB4C3E916BAAEC
:10040000AABE000000803F05A84CCDB2D44EB9383A
:1004100036A9020C50B9918688083CA6AAAA2ABE21
:10042000000000803F07634236B79BD8A71A39689F
:100430005618AEBAAB558C1D3CB7CC5763BD6DEDAD
:10044000FD753EF6177231BF000000803F080000C6
:1004500000BE922449123EABAAAA2ABECDCCCC4CF7
:100460003E00000080BEABAAAAAA3E00000000BF6A
:10047000000000803F0000000000084178D3BB432B
:1004800087D1133D190E3CC3BD4282AD2B3E68ECB3
:100490008276BED98FE1A93E4C80EFFFBE01C4FF3A
:1004A0007F3F0000000000006E616E00696E660014
:1004B0004E414E494E495459494E46CDCCCC3D0A49
:1004C000D7233C17B7D13877CC2B329595E6241F2C
:1004D000B14F0A000020410000C84200401C4620E5
:1004E000BCBE4CCA1B0E5AAEC59D7400407A10F3B8
:1004F0005A00A0724E18090010A5D4E80000E87652
:1005000048170000E40B54020000CA9A3B000000A8
:10051000E1F505000080969800000040420F0000C1
:1005200000A08601000000102700000000E8030082
:100530000000006400000000000A0000000000014C
:1005400000000000002C76D888DC674F0823DFC14C
:10055000DFAE59E1B1B796E5E3E453C63AE6519907
:100560007696E8E6C28426EB898C9B62ED407C6F30
:10057000FCEFBC9C9F40F2BAA56FA5F490055A2AE7
:10058000F75C936B6CF9676DC11BFCE0E40D47FEF3
:10059000F520E6B500D0ED902E03009435770500E8
:1005A00080841E080000204E0A000000C80C33336F
:1005B00033330F986E12831141EF8D2114893BE67E
:1005C0005516CFFEE6DB18D1844B381BF77C1D9007
:1005D0001DA4BBE424203284725E228100C9F12470
:1005E000ECA1E53D274649524D574152455F4E41EA
:1005F0004D453A54696E79472C204649524D574132
:1006000052455F55524C3A687474707325253341D6
:100610002F2F6769746875622E636F6D2F73796E03
:10062000746865746F732F54696E79472C2046493E
:10063000524D574152455F56455253494F4E3A2508
:10064000302E32662C204649524D574152455F426A
:1006500055494C443A25302E32662C2048415244AC
:10066000574152455F504C4154464F524D3A253008
:100670002E32662C2048415244574152455F564520
:100680005253494F4E3A25302E32660A006F6B2086
:10069000543A25640A005B257325735D2025732079
:1006A000257320706F736974696F6E2531382E332E
:1006B0006625730A005B257325735D20257320254D
:1006C00073206F66667365742532302E336625732A
:1006D0000A005B257325735D202573207A65726F90
:1006E000206261636B6F66662531392E3366257330
:1006F0000A005B257325735D202573206C6174638C
:1007000068206261636B6F66662531382E3366251B
:10071000730A005B257325735D202573206C61745B
:1007200063682076656C6F636974792531332E3088
:100730006625732F6D696E0A005B257325735D2036
:100740002573207365617263682076656C6F6369D9
:1007500074792531322E306625732F6D696E0A004B
:100760005B257325735D2025732073776974636837
:10077000206D617825313764205B303D6F66662CD3
:10078000313D686F6D696E672C323D6C696D6974BF
:100790002C333D6C696D69742B686F6D696E675D94
:1007A0000A005B257325735D2025732073776974B8
:1007B0006368206D696E25313764205B303D6F665C
:1007C000662C313D686F6D696E672C323D6C696DCA
:1007D00069742C333D6C696D69742B686F6D696E3B
:1007E000675D0A005B257325735D202573207261A8
:1007F000646975732076616C75652532302E3466B8
:1008000025730A005B257325735D202573206A75A7
:100810006E6374696F6E20646576696174696F6E6A
:100820002531342E3466257320286C617267657219
:1008300020697320666173746572290A005B2573F1
:1008400025735D202573206A65726B20686F6D6962
:100850006E672531362E306625732F6D696E5E33D7
:10086000202A2031206D696C6C696F6E0A005B254F
:100870007325735D202573206A65726B206D617826
:10088000696D756D2531352E306625732F6D696E56
:100890005E33202A2031206D696C6C696F6E0A000E
:1008A0005B257325735D2025732074726176656CFA
:1008B000206D696E696D756D2531372E3366257330
:1008C0000A005B257325735D2025732074726176A1
:1008D000656C206D6178696D756D2531372E3366D5
:1008E00025730A005B257325735D202573207665CB
:1008F0006C6F63697479206D6178696D756D2531F0
:10090000312E306625732F6D696E0A005B257325C5
:10091000735D202573206665656472617465206D62
:100920006178696D756D2531312E306625732F6DB7
:10093000696E0A005B257325735D2025732061783D
:100940006973206D6F6465253138642025730A0052
:100950005B6D615D20206D696E206172632073653F
:10096000676D656E742531382E336625730A005B1A
:10097000736C5D2020736F6674206C696D697420E0
:10098000656E61626C65253132640A005B63745D7B
:10099000202063686F7264616C20746F6C65726193
:1009A0006E63652531372E346625730A005B6A61F4
:1009B0005D20206A756E6374696F6E206163636584
:1009C0006C65726174696F6E25382E306625730A06
:1009D000005B6764695D2064656661756C7420679F
:1009E000636F64652064697374616E6365206D6F05
:1009F0006465253264205B303D4739302C313D47FA
:100A000039315D0A005B6770615D20646566617500
:100A10006C742067636F6465207061746820636F15
:100A20006E74726F6C253364205B303D4736312C19
:100A3000313D4736312E312C323D4736345D0A0088
:100A40005B67636F5D2064656661756C74206763C6
:100A50006F646520636F6F72642073797374656D62
:100A6000253364205B312D3620284735342D47351A
:100A700039295D0A005B67756E5D20646566617586
:100A80006C742067636F646520756E697473206D84
:100A90006F6465253564205B303D4732302C313D35
:100AA0004732315D0A005B67706C5D20646566618A
:100AB000756C742067636F646520706C616E65256A
:100AC000313064205B303D4731372C313D47313880
:100AD0002C323D4731395D0A00256320776F726BF8
:100AE000206F66667365743A2531322E336625733E
:100AF0000A002563206D616368696E6520706F73FD
:100B00006E3A2531312E336625730A002563207035
:100B10006F736974696F6E3A2531352E33662573AC
:100B20000A00546F6F6C206E756D62657220202014
:100B30002020202020202025640A004665656420AE
:100B400072617465206D6F64653A2020202020203A
:100B500025730A0044697374616E6365206D6F6468
:100B6000653A2020202020202025730A005061743F
:100B700068204D6F64653A2020202020202020200E
:100B8000202025730A00506C616E653A20202020D9
:100B9000202020202020202020202025730A004D06
:100BA0006F74696F6E206D6F64653A20202020207D
:100BB0002020202025730A00436F6F7264696E61E4
:100BC00074652073797374656D3A20202025730A4B
:100BD00000556E6974733A202020202020202020A8
:100BE00020202020202025730A00486F6D696E6741
:100BF0002073746174653A20202020202020202555
:100C0000730A0046656564686F6C64207374617470
:100C1000653A20202020202025730A004D6F74693A
:100C20006F6E2073746174653A202020202020208C
:100C30002025730A004379636C65207374617465C1
:100C40003A20202020202020202025730A005261F5
:100C500077206D616368696E652073746174653AAD
:100C600020202025730A004D616368696E6520733A
:100C7000746174653A2020202020202025730A000A
:100C80004C696E65206E756D6265723A2531302E45
:100C900030660A004665656420726174653A2531E4
:100CA000362E336625732F6D696E0A0056656C6F9C
:100CB000636974793A2531372E336625732F6D6950
:100CC0006E0A001A0DE90CC90C473935202D207524
:100CD0006E6974732D7065722D7265766F6C7574A4
:100CE000696F6E206D6F646500473934202D207563
:100CF0006E6974732D7065722D6D696E75746520E3
:100D00006D6F64652028692E652E206665656472A6
:100D1000617465206D6F64652900473933202D208B
:100D2000696E76657273652074696D65206D6F6498
:100D30006500560D360D473931202D20696E6372DE
:100D4000656D656E74616C2064697374616E636552
:100D5000206D6F646500473930202D206162736F0C
:100D60006C7574652064697374616E6365206D6F62
:100D7000646500A70D8F0D790D473634202D206353
:100D80006F6E74696E756F7573206D6F6465004763
:100D900036312E31202D2065786163742073746F95
:100DA00070206D6F646500473631202D20657861B5
:100DB00063742070617468206D6F646500E10DD20A
:100DC0000DC30D473139202D20595A20706C616EAA
:100DD0006500473138202D20585A20706C616E65AF
:100DE00000473137202D20585920706C616E650006
:100DF0006D0E5B0E420E210EFA0D473830202D206D
:100E000063616E63656C206D6F74696F6E206D6FCA
:100E1000646520286E6F6E6520616374697665294C
:100E200000473320202D20636F756E746572206338
:100E30006C6F636B776973652061726320666565AB
:100E40006400473220202D20636C6F636B776973D9
:100E50006520617263206665656400473120202D3E
:100E6000206C696E6561722066656564004730209C
:100E7000202D206C696E65617220747261766572D6
:100E8000736520287365656B2900340F1A0F000FF6
:100E9000E60ECC0EB20E980E473539202D20636F2A
:100EA0006F7264696E6174652073797374656D2007
:100EB0003600473538202D20636F6F7264696E618C
:100EC00074652073797374656D203500473537205C
:100ED0002D20636F6F7264696E617465207379731E
:100EE00074656D203400473536202D20636F6F7296
:100EF00064696E6174652073797374656D20330065
:100F0000473535202D20636F6F7264696E6174659B
:100F10002073797374656D203200473534202D209D
:100F2000636F6F7264696E61746520737973746541
:100F30006D203100473533202D206D616368696E67
:100F40006520636F6F7264696E6174652073797375
:100F500074656D00670F610F5A0F486F6D696E679A
:100F600000486F6D6564004E6F7420486F6D656456
:100F7000009B0F960F910F8B0F860F7D0F456E64B0
:100F800020486F6C6400486F6C6400446563656C56
:100F900000506C616E0053796E63004F666600AE60
:100FA0000FAA0FA50F486F6C640052756E00537442
:100FB0006F7000D80FCE0FC80FC10FBD0F4A6F67FB
:100FC00000486F6D696E670050726F6265004D6119
:100FD0006368696E696E67004F6666000E100810E0
:100FE0000210FD0FF90FF30FEA0F53687574646F69
:100FF000776E004379636C6500456E640053746FCF
:101000007000416C61726D00526561647900496ED7
:10101000697469616C697A696E670071106B10653B
:101020001060105C10581053104D10471040103CC9
:1010300010331053687574646F776E004A6F6700E1
:10104000486F6D696E67004379636C650050726F1D
:10105000626500486F6C640052756E00456E6400F6
:1010600053746F7000416C61726D005265616479F8
:1010700000496E697469616C697A696E67009810DD
:101080008210473231202D206D696C6C696D65745A
:101090006572206D6F646500473230202D20696EC7
:1010A00063686573206D6F646500D210C710BB1054
:1010B000B2105B7261646975735D005B696E68692B
:1010C00062697465645D005B7374616E646172640F
:1010D0005D005B64697361626C65645D00EC10E8DF
:1010E00010E3102064656700206D6D0020696E00BC
:1010F0002A2A2A204E4F54494345202A2A2A205280
:101100006573657474696E672062617564207261CD
:10111000746520746F202573005B6E65745D206EAE
:101120006574776F726B206D6F646525313764204D
:101130005B303D6D61737465725D0A005B62617561
:10114000645D20555342206261756420726174654C
:1011500025313564205B313D393630302C323D311C
:10116000393230302C333D33383430302C343D3547
:10117000373630302C353D3131353230302C363D3C
:101180003233303430305D0A005B65785D20206595
:101190006E61626C6520666C6F7720636F6E74722F
:1011A0006F6C25313064205B303D6F66662C313DBD
:1011B000584F4E2F584F46462C20323D5254532FF5
:1011C0004354535D0A005B65655D2020656E616276
:1011D0006C65206563686F25313864205B303D6F36
:1011E00066662C313D6F6E5D0A005B65635D202095
:1011F000657870616E64204C4620746F2043524CB9
:1012000046206F6E205458253664205B303D6F6653
:10121000662C313D6F6E5D0A004C12471241123B45
:101220001235122E12271232333034303000313161
:1012300035323030003537363030003338343030E6
:1012400000313932303000393630300030007379B7
:1012500073006662000000000702CE7B20605860C9
:101260007333E11ADC437379730066760000000083
:101270000703D37B206058607733EC51783F737954
:1012800073006870000000000700D87B20600661D2
:101290007B330000803F73797300687600000000A4
:1012A0000700DD7B2060AF7B7F3300000041737956
:1012B00073006964000000000400E27B4F7B58600B
:1012C0006F3300000000000000006E00000000000E
:1012D00001004A5C4D59B660E72B00000000000099
:1012E00000006C696E65000001004A5C6459B660DC
:1012F000E72B000000000000000076656C00000095
:1013000000020A5C7B5958606F3300000000000047
:10131000000066656564000000022A5CB3595860ED
:101320006F3300000000000000007374617400005F
:1013300000004F5CBE5858606F3300000000000092
:1013400000006D61637300000000545CCB5858606E
:101350006F33000000000000000063796373000039
:101360000000595CD15858606F3300000000000045
:1013700000006D6F7473000000005E5CD758586009
:101380006F330000000000000000686F6C64000014
:101390000000635CDD5858606F33000000000000FF
:1013A0000000756E6974000000006D5CE9585860BB
:1013B0006F330000000000000000636F6F720000D8
:1013C0000000725CF45858606F33000000000000A9
:1013D00000006D6F6D6F00000000775CFF58586073
:1013E0006F330000000000000000706C616E0000B0
:1013F00000007C5C085958606F330000000000005A
:1014000000007061746800000000815C135958602E
:101410006F33000000000000000064697374000076
:101420000000865C1E5958606F3300000000000009
:10143000000066726D6F000000008B5C29595860D7
:101440006F330000000000000000746F6F6C00003C
:101450000000905C345958606F33000000006D70DC
:101460006F006D706F78000000032A5E175A586095
:101470006F33000000006D706F006D706F790000B9
:1014800000032A5E175A58606F33000000006D7029
:101490006F006D706F7A000000032A5E175A586063
:1014A0006F33000000006D706F006D706F610000A1
:1014B00000032A5E175A58606F33000000006D70F9
:1014C0006F006D706F62000000032A5E175A58604B
:1014D0006F33000000006D706F006D706F6300006F
:1014E00000032A5E175A58606F3300000000706FC7
:1014F0007300706F737800000003235EED5958602D
:101500006F3300000000706F7300706F737900001C
:101510000003235EED5958606F3300000000706FC8
:101520007300706F737A00000003235EED595860FA
:101530006F3300000000706F7300706F7361000004
:101540000003235EED5958606F3300000000706F98
:101550007300706F736200000003235EED595860E2
:101560006F3300000000706F7300706F73630000D2
:101570000003235EED5958606F33000000006F6672
:1015800073006F66737800000003305E415A586044
:101590006F33000000006F6673006F6673790000A0
:1015A0000003305E415A58606F33000000006F66E0
:1015B00073006F66737A00000003305E415A586012
:1015C0006F33000000006F6673006F667361000088
:1015D0000003305E415A58606F33000000006F66B0
:1015E00073006F66736200000003305E415A5860FA
:1015F0006F33000000006F6673006F667363000056
:101600000003305E415A58606F3300000000686F7D
:101610006D00686F6D6500000000685CE358D85B82
:101620006F3300000000686F6D00686F6D78000018
:101630000000235EB15F5860BC2B00000000686FA3
:101640006D00686F6D7900000000235EB15F586027
:10165000BD2B00000000686F6D00686F6D7A0000A0
:101660000000235EB15F5860BE2B00000000686F71
:101670006D00686F6D6100000000235EB15F58600F
:10168000BF2B00000000686F6D00686F6D62000086
:101690000000235EB15F5860C02B00000000686F3F
:1016A0006D00686F6D6300000000235EB15F5860DD
:1016B000C12B000000007072620070726265000051
:1016C00000008CC3B15F5860C22B00000000707234
:1016D000620070726278000000038CC32060586062
:1016E000C32B00000000707262007072627900000B
:1016F00000038CC320605860C72B0000000070728C
:1017000062007072627A000000038CC3206058602F
:10171000CB2B0000000070726200707262610000EA
:1017200000038CC320605860CF2B00000000707253
:10173000620070726262000000038CC32060586017
:10174000D32B0000000070726200707262630000B0
:1017500000038CC320605860D72B000000006A6F24
:1017600067006A6F6778000000008CC3AD5FF25BB2
:10177000E12B000000006A6F67006A6F6779000064
:1017800000008CC3AD5FF85BE12B000000006A6FC6
:1017900067006A6F677A000000008CC3AD5FFE5B74
:1017A000E12B000000006A6F67006A6F676100004C
:1017B00000008CC3AD5F045CE12B0000000070777B
:1017C0007200707772310000000038BC75BB586041
:1017D0006F33000000007077720070777232000083
:1017E000000038BC75BB58606F3300000000707794
:1017F0007200707772330000000038BC75BB58600F
:101800006F33000000007077720070777234000050
:10181000000038BC75BB58606F330000000000004A
:1018200000007372000000000000C4AE97AE99AED5
:101830006F33000000000000000071720000000023
:1018400000006DB020B058606F3300000000000051
:101850000000716900000000000072B035B05860EF
:101860006F330000000000000000716F00000000F6
:10187000000077B051B058606F33000000000000E6
:10188000000065720000000000008CC342AB58608D
:101890006F330000000000000000716600000000CF
:1018A00000008CC3AD5FD35B6F330000000000000D
:1018B00000007278000000000000ECC3FB65586077
:1018C0006F3300000000000000006D73670000002F
:1018D0000000A3C3AD5F58606F330000000000003C
:1018E0000000636C6561720000008CC312501250DE
:1018F0006F33000000000000000074657374000086
:1019000000008CC35C7C0ABF6F3300000000000045
:10191000000064656661000000008CC37E7C325F5D
:101920006F330000000000000000626F6F74000061
:1019300000008CC3A07CAA7B6F3300000000000075
:10194000000068656C70000000008CC3267C586045
:101950006F3300000000000000006800000000007D
:1019600000008CC3267C58606F33000000003100FB
:101970000000316D6100000003000EBCB15F5A60D1
:10198000D0520000000031000000317361000000FF
:10199000030313BC2060C8BADB526666E63F310021
:1019A00000003174720000000B0419BC2060D3BA2F
:1019B000DF523333CB4131000000316D690000004C
:1019C000030029BCB15FDEBAD152000000413100F2
:1019D000000031706F00000003002EBCB15F80601A
:1019E000D552000000003100000031706D00000091
:1019F000030033BCB15F61BBD6520000004032002F
:101A00000000326D6100000003000EBCB15F5A603F
:101A1000EF520000803F320000003273610000008E
:101A2000030313BC2060C8BAFA526666E63F320070
:101A300000003274720000000B0419BC2060D3BA9D
:101A4000FE52F628124232000000326D690000009A
:101A5000030029BCB15FDEBAF05200000041320041
:101A6000000032706F00000003002EBCB15F806088
:101A7000F452000000003200000032706D000000DF
:101A8000030033BCB15F61BBF5520000004033007E
:101A90000000336D6100000003000EBCB15F5A60AE
:101AA0000E5300000040330000003373610000005B
:101AB000030313BC2060C8BA19536666E63F3300BF
:101AC00000003374720000000B0419BC2060D3BA0C
:101AD0001D530000A03F33000000336D690000007B
:101AE000030029BCB15FDEBA0F5300000041330090
:101AF000000033706F00000003002EBCB15F8060F7
:101B00001353000000003300000033706D0000002C
:101B1000030033BCB15F61BB1453000000403400CC
:101B20000000346D6100000003000EBCB15F5A601C
:101B30002D53000040403400000034736100000069
:101B4000030313BC2060C8BA38536666E63F34000E
:101B500000003474720000000B0419BC2060D3BA7A
:101B60003C530000344334000000346D6900000031
:101B7000030029BCB15FDEBA2E53000000413400DF
:101B8000000034706F00000003002EBCB15F806065
:101B90003253000000003400000034706D0000007B
:101BA000030033BCB15F61BB3353000000407800D9
:101BB000000078616D0000000300405D725A845A95
:101BC000772A0000803F7800000078766D000000E2
:101BD0000B00885D206010667C2A00606A467800F1
:101BE00000007866720000000B00835D20601066C4
:101BF000782A00606A467800000078746E00000061
:101C00000B03925D20601066842A000000007800BB
:101C1000000078746D0000000B038D5D206010667D
:101C2000802A00005C4378000000786A6D000000A4
:101C30000B00975D2060705B882A00401C4578008F
:101C40000000786A680000000B009C5D2060A75BC4
:101C50008C2A00401C4678000000786A640000006E
:101C60000B04A15D20601066942A0AD7233C7800FB
:101C7000000078736E0000000300AB5DB15FEDBE45
:101C80009B290000803F78000000787378000000F6
:101C90000300D85DB15FEDBE9C2900000000780014
:101CA00000007873760000000B00055E206010666F
:101CB0009C2A00803B4578000000786C760000008C
:101CC0000B000A5E20601066A02A0000C84278005F
:101CD0000000786C620000000B030F5E206010664D
:101CE000A42A0000A04178000000787A6200000079
:101CF0000B03145E20601066A82A000040407900A3
:101D0000000079616D0000000300405D725A845A42
:101D1000AC2A0000803F7900000079766D00000059
:101D20000B00885D20601066B12A00007A467900B9
:101D300000007966720000000B00835D2060106671
:101D4000AD2A00007A467900000079746E00000028
:101D50000B03925D20601066B92A00000000790034
:101D6000000079746D0000000B038D5D206010662B
:101D7000B52A00005C4379000000796A6D0000001C
:101D80000B00975D2060705BBD2A00409C45790088
:101D90000000796A680000000B009C5D2060A75B72
:101DA000C12A00401C4679000000796A64000000E6
:101DB0000B04A15D20601066C92A0AD7233C790074
:101DC000000079736E0000000300AB5DB15FEDBEF3
:101DD0009D290000803F79000000797378000000A1
:101DE0000300D85DB15FEDBE9E29000000007900C0
:101DF00000007973760000000B00055E206010661D
:101E0000D12A00803B4579000000796C7600000003
:101E10000B000A5E20601066D52A0000C8427900D7
:101E20000000796C620000000B030F5E20601066FA
:101E3000D92A0000A04179000000797A62000000F0
:101E40000B03145E20601066DD2A000040407A001B
:101E500000007A616D0000000300405D725A845AF0
:101E6000E12A0000803F7A0000007A766D000000D1
:101E70000B00885D20601066E62A000048447A0066
:101E800000007A66720000000B00835D206010661F
:101E9000E22A000048447A0000007A746E000000D4
:101EA0000B03925D20601066EE2A000000007A00AD
:101EB00000007A746D0000000B038D5D20601066D9
:101EC000EA2A0000C8427A0000007A6A6D00000029
:101ED0000B00975D2060705BF22A000048427A0098
:101EE00000007A6A680000000B009C5D2060A75B20
:101EF000F62A00007A447A0000007A6A6400000042
:101F00000B04A15D20601066FE2A0AD7233C7A00EC
:101F100000007A736E0000000300AB5DB15FEDBEA0
:101F20009F29000000007A0000007A73780000000A
:101F30000300D85DB15FEDBEA0290000803F7A00AC
:101F400000007A73760000000B00055E20601066CA
:101F5000062B000048447A0000007A6C76000000EE
:101F60000B000A5E206010660A2B0000C8427A004F
:101F700000007A6C620000000B030F5E20601066A8
:101F80000E2B0000A0417A0000007A7A6200000067
:101F90000B03145E20601066122B000020416100CC
:101FA000000061616D0000000300405D725A845AB8
:101FB000162B0000803F6100000061766D0000007C
:101FC0000300885D206006611B2B00606A4761008A
:101FD00000006166720000000300835D20600661FE
:101FE000172B00803B476100000061746E00000009
:101FF0000303925D20601066232B000080BF610008
:10200000000061746D00000003038D5D20600661B7
:102010001F2B0000C84361000000616A6D000000D2
:102020000300975D2060705B272B0080BB4661003A
:102030000000616A6800000003009C5D2060A75BEF
:102040002B2B0080BB4661000000616A6400000029
:102050000304A15D20600661332BCDCCCC3D610033
:1020600000006172610000000B03A65D2060066144
:10207000372B0000803F6100000061736E0000009C
:102080000300AB5DB15FEDBEA1290000803F6100A0
:1020900000006173780000000300D85DB15FEDBE01
:1020A000A2290000000061000000617376000000BA
:1020B0000300055E206006613B2B0080BB4561008C
:1020C0000000616C7600000003000A5E206006617B
:1020D0003F2B00007A4461000000616C6200000048
:1020E00003030F5E20600661432B0000A0406100E7
:1020F0000000617A620000000303145E2060066144
:10210000472B000000406200000062616D0000008B
:102110000300405D725A845A4B2B0000000062009D
:10212000000062766D0000000300885D206006619B
:10213000502B0000614562000000626672000000E2
:102140000300835D206006614C2B00006145620046
:10215000000062746E0000000303925D2060106650
:10216000582B000080BF6200000062746D00000008
:1021700003038D5D20600661542B000080BF620068
:102180000000626A6D0000000300975D2060705BD4
:102190005C2B0000A04162000000626A6400000045
:1021A0000300A15D20600661682B0AD7233C620012
:1021B00000006272610000000B03A65D20600661F2
:1021C0006C2B0000803F6300000063616D00000025
:1021D0000300405D725A845A802B000000006300A7
:1021E000000063766D0000000300885D20600661DA
:1021F000852B0000614563000000636672000000EB
:102200000300835D20600661812B0000614563004F
:10221000000063746E0000000303925D206010668E
:102220008D2B000080BF6300000063746D00000010
:1022300003038D5D20600661892B000080BF630071
:102240000000636A6D0000000300975D2060705B12
:10225000912B0000A04163000000636A640000004D
:102260000300A15D206006619D2B0AD7233C63001B
:1022700000006372610000000B03A65D2060066130
:10228000A12B0000803F7031000070316672710038
:1022900003004BAA20600661AC510000C8427031B7
:1022A0000000703163736C00030050AA2060066167
:1022B000B05100007A4470310000703163736800DF
:1022C000030055AA20600661B4510000FA44703141
:1022D0000000703163706C0003035AAA206006612D
:1022E000B8510000003E703100007031637068002A
:1022F00003035FAA20600661BC51CDCC4C3E703117
:102300000000703177736C00030064AA20600661DE
:10231000C05100007A44703100007031777368005A
:10232000030069AA20600661C4510000FA447031BC
:102330000000703177706C0003036EAA20600661A4
:10234000C8510000003E70310000703177706800A5
:10235000030373AA20600661CC51CDCC4C3E703192
:1023600000007031706F6600030378AA2060066178
:10237000D051CDCCCC3D6735340067353478000082
:102380000B03195E20601066E72900000000673526
:1023900034006735347900000B03195E2060106645
:1023A000EB2900000000673534006735347A0000FF
:1023B0000B03195E20601066EF29000000006735EE
:1023C00034006735346100000B03195E206010662D
:1023D000F3290000000067353400673534620000DF
:1023E0000B03195E20601066F729000000006735B6
:1023F00034006735346300000B03195E20601066FB
:10240000FB2900000000673535006735357800008E
:102410000B03195E20601066FF290000DC4267355F
:1024200035006735357900000B03195E20601066B2
:10243000032A0000DC42673535006735357A000035
:102440000B03195E20601066072A00000000673544
:1024500035006735356100000B03195E206010669A
:102460000B2A000000006735350067353562000033
:102470000B03195E206010660F2A0000000067350C
:1024800035006735356300000B03195E2060106668
:10249000132A0000000067353600673536780000E3
:1024A0000B03195E20601066172A0000DC426735B6
:1024B00036006735367900000B03195E2060106620
:1024C0001B2A0000A041673536006735367A0000C8
:1024D0000B03195E206010661F2A000020C16735BB
:1024E00036006735366100000B03195E2060106608
:1024F000232A000000006735360067353662000089
:102500000B03195E20601066272A00000000673563
:1025100036006735366300000B03195E20601066D5
:102520002B2A000000006735370067353778000038
:102530000B03195E206010662F2A0000000067352B
:1025400037006735377900000B03195E206010668D
:10255000332A00000000673537006735377A0000FE
:102560000B03195E20601066372A000000006735F3
:1025700037006735376100000B03195E2060106675
:102580003B2A0000000067353700673537620000DE
:102590000B03195E206010663F2A000000006735BB
:1025A00037006735376300000B03195E2060106643
:1025B000432A00000000673538006735387800008E
:1025C0000B03195E20601066472A00000000673583
:1025D00038006735387900000B03195E20601066FB
:1025E0004B2A00000000673538006735387A000054
:1025F0000B03195E206010664F2A0000000067354B
:1026000038006735386100000B03195E20601066E2
:10261000532A000000006735380067353862000033
:102620000B03195E20601066572A00000000673512
:1026300038006735386300000B03195E20601066B0
:102640005B2A0000000067353900673539780000E3
:102650000B03195E206010665F2A000000006735DA
:1026600039006735397900000B03195E2060106668
:10267000632A00000000673539006735397A0000A9
:102680000B03195E20601066672A000000006735A2
:1026900039006735396100000B03195E2060106650
:1026A0006B2A000000006735390067353962000089
:1026B0000B03195E206010666F2A0000000067356A
:1026C00039006735396300000B03195E206010661E
:1026D000732A000000006739320067393278000041
:1026E0000103195E20605860592C00000000673912
:1026F00032006739327900000103195E20605860AA
:102700005D2C00000000673932006739327A000022
:102710000103195E20605860612C000000006739D9
:1027200032006739326100000103195E2060586091
:10273000652C000000006739320067393262000002
:102740000103195E20605860692C000000006739A1
:1027500032006739326300000103195E206058605F
:102760006D2C0000000067323800673238780000B6
:1027700001031E5E20605860712C0000000067326B
:10278000380067323879000001031E5E206058600F
:10279000752C00000000673238006732387A00007C
:1027A00001031E5E20605860792C00000000673233
:1027B000380067323861000001031E5E20605860F7
:1027C0007D2C00000000673238006732386200005C
:1027D00001031E5E20605860812C000000006732FB
:1027E000380067323863000001031E5E20605860C5
:1027F000852C00000000673330006733307800001C
:1028000001031E5E20605860892C000000006733C1
:10281000300067333079000001031E5E206058608D
:102820008D2C00000000673330006733307A0000E1
:1028300001031E5E20605860912C00000000673389
:10284000300067333061000001031E5E2060586075
:10285000952C0000000067333000673330620000C1
:1028600001031E5E20605860992C00000000673351
:10287000300067333063000001031E5E2060586043
:102880009D2C000000006A6964006A6964610000B0
:1028900000008CC3F95FDF609733000000006A69B5
:1028A00064006A696462000000008CC3F95FDF6045
:1028B0009B33000000006A6964006A696463000079
:1028C00000008CC3F95FDF609F33000000006A697D
:1028D00064006A696464000000008CC3F95FDF6013
:1028E000A33300000000737973006A6100000000E8
:1028F0000F00DB5C20601066B5290024F449737971
:1029000073006374000000000F04FB5C206010661D
:10291000B9290AD7233C73797300736C0000000057
:1029200007001B5DB15F5A60BD290000000073798C
:102930007300737400000000070006BFB15FE8BEBB
:10294000902900000000737973006D74000000008E
:1029500007020ABC206091BBCC520000004000007E
:1029600000006D65000000000000A3C3ECBBECBBE1
:102970006F3300000000000000006D6400000000E4
:102980000000A3C3CEBBCEBB6F3300000000737941
:102990007300656A000000000700D282B15F8060AA
:1029A000243300000000737973006A760000000091
:1029B0000700D782B15F63823E37000080407379A1
:1029C00073006A73000000000700DC82B15F806062
:1029D00040370000803F7379730074760000000078
:1029E000070028C4B15F80603F540000803F7379C6
:1029F000730071760000000007007CB0B15FA46036
:102A00000552000000007379730073760000000027
:102A10000700CBAEB15F926012520000803F737925
:102A200073007369000000000700C6AED55F9BAE5F
:102A300013520000FA4373797300656300000000CD
:102A400007005966B15F7266253300000000737994
:102A5000730065650000000007005E66B15FAA664E
:102A600026330000000073797300657800000000D1
:102A700007006366B15FC36527330000803F737949
:102A8000730062617564000004006866B15F776579
:102A900028330000A040737973006E657400000055
:102AA00007006D66B15F5A608633000000007379DD
:102AB000730067706C0000000700C25CB15F926039
:102AC000CB29000000007379730067756E00000069
:102AD0000700C75CB15F8060CC290000803F73793C
:102AE000730067636F0000000700CC5CB15F5A6041
:102AF000CA290000803F737973006770610000008D
:102B00000700D15CB15F9260CD290000004073796D
:102B100073006764690000000700D65CB15F8060E5
:102B2000CE290000000000000000676300000000E4
:102B300000008CC36E7A7E7A6F33000000000000C4
:102B400000006D61000000000B04205D2060106635
:102B5000C229CDCCCC3D000000006664000000001E
:102B60000300C7C3B15F80603F3700000000756499
:102B700061007564613000000300ECC3F95FDF6041
:102B80002A33000000007564610075646131000043
:102B90000300ECC3F95FDF602E33000000007564B2
:102BA00061007564613200000300ECC3F95FDF600F
:102BB0003233000000007564610075646133000009
:102BC0000300ECC3F95FDF6036330000000075647A
:102BD00062007564623000000300ECC3F95FDF60DF
:102BE0003A330000000075646200756462310000D1
:102BF0000300ECC3F95FDF603E3300000000756442
:102C000062007564623200000300ECC3F95FDF60AC
:102C10004233000000007564620075646233000096
:102C20000300ECC3F95FDF60463300000000756409
:102C300063007564633000000300ECC3F95FDF607C
:102C40004A3300000000756463007564633100005E
:102C50000300ECC3F95FDF604E33000000007564D1
:102C600063007564633200000300ECC3F95FDF604A
:102C70005233000000007564630075646333000024
:102C80000300ECC3F95FDF60563300000000756499
:102C900064007564643000000300ECC3F95FDF601A
:102CA0005A330000000075646400756464310000EC
:102CB0000300ECC3F95FDF605E3300000000756461
:102CC00064007564643200000300ECC3F95FDF60E8
:102CD00062330000000075646400756464330000B2
:102CE0000300ECC3F95FDF606633000000005F742F
:102CF00065005F7465780000000209C420605860B8
:102D0000754F000000005F7465005F746579000016
:102D1000000209C420605860794F000000005F7411
:102D200065005F74657A0000000209C42060586085
:102D30007D4F000000005F7465005F7465610000F6
:102D4000000209C420605860814F000000005F74D9
:102D500065005F7465620000000209C4206058606D
:102D6000854F000000005F7465005F7465630000BC
:102D7000000209C420605860894F000000005F74A1
:102D800072005F7472780000000209C4206058600D
:102D90009A50000000005F7472005F747279000046
:102DA000000209C4206058609E50000000005F745B
:102DB00072005F74727A0000000209C420605860DB
:102DC000A250000000005F7472005F747261000026
:102DD000000209C420605860A650000000005F7423
:102DE00072005F7472620000000209C420605860C3
:102DF000AA50000000005F7472005F7472630000EC
:102E0000000209C420605860AE50000000005F74EA
:102E100073005F7473310000000209C420605860C1
:102E20000550000000005F7073005F707331000098
:102E3000000209C4206058601550000000005F6364
:102E400073005F6373310000000209C420605860A2
:102E50002550000000005F6573005F65733100005E
:102E6000000209C4206058603550000000005F78FF
:102E700073005F7873310000000209C4206058605D
:102E80006753000000005F6665005F666531000003
:102E9000000209C4206058604550000000005F74C3
:102EA00073005F7473320000000209C42060586030
:102EB0000950000000005F7073005F707332000003
:102EC000000209C4206058601950000000005F63D0
:102ED00073005F6373320000000209C42060586011
:102EE0002950000000005F6573005F6573320000C9
:102EF000000209C4206058603950000000005F786B
:102F000073005F7873320000000209C420605860CB
:102F10007F53000000005F6665005F666532000059
:102F2000000209C4206058604950000000005F742E
:102F300073005F7473330000000209C4206058609E
:102F40000D50000000005F7073005F70733300006D
:102F5000000209C4206058601D50000000005F633B
:102F600073005F6373330000000209C4206058607F
:102F70002D50000000005F6573005F657333000033
:102F8000000209C4206058603D50000000005F78D6
:102F900073005F7873330000000209C4206058603A
:102FA0009753000000005F6665005F6665330000B0
:102FB000000209C4206058604D50000000005F749A
:102FC00073005F7473340000000209C4206058600D
:102FD0001150000000005F7073005F7073340000D8
:102FE000000209C4206058602150000000005F63A7
:102FF00073005F6373340000000209C420605860EE
:103000003150000000005F6573005F65733400009D
:10301000000209C4206058604150000000005F7841
:1030200073005F7873340000000209C420605860A8
:10303000AF53000000005F6665005F666534000006
:10304000000209C4206058605150000000000000D8
:1030500000005F64616D000000008CC3955C955CAE
:103060006F33000000000000000073653030000086
:1030700002008CC3D55FB6601E5200000000000045
:10308000000073653031000002008CC3D55FB6606C
:103090002052000000000000000073653032000084
:1030A00002008CC3D55FB660225200000000000011
:1030B000000073653033000002008CC3D55FB6603A
:1030C000245200000000000000007365303400004E
:1030D00002008CC3D55FB6602652000000000000DD
:1030E000000073653035000002008CC3D55FB66008
:1030F0002852000000000000000073653036000018
:1031000002008CC3D55FB6602A52000000000000A8
:10311000000073653037000002008CC3D55FB660D5
:103120002C520000000000000000736530380000E1
:1031300002008CC3D55FB6602E5200000000000074
:10314000000073653039000002008CC3D55FB660A3
:1031500030520000000000000000736531300000B4
:1031600002008CC3D55FB660325200000000000040
:10317000000073653131000002008CC3D55FB6607A
:10318000345200000000000000007365313200007E
:1031900002008CC3D55FB66036520000000000000C
:1031A000000073653133000002008CC3D55FB66048
:1031B0003852000000000000000073653134000048
:1031C00002008CC3D55FB6603A52000000000000D8
:1031D000000073653135000002008CC3D55FB66016
:1031E0003C52000000000000000073653136000012
:1031F00002008CC3D55FB6603E52000000000000A4
:10320000000073653137000002008CC3D55FB660E3
:1032100040520000000000000000736531380000DB
:1032200002008CC3D55FB66042520000000000006F
:10323000000073653139000002008CC3D55FB660B1
:1032400044520000000000000000736532300000AE
:1032500002008CC3D55FB66046520000000000003B
:10326000000073653231000002008CC3D55FB66088
:103270004852000000000000000073653232000078
:1032800002008CC3D55FB6604A5200000000000007
:10329000000073653233000002008CC3D55FB66056
:1032A0004C52000000000000000073653234000042
:1032B00002008CC3D55FB6604E52000000000000D3
:1032C000000073653235000002008CC3D55FB66024
:1032D000505200000000000000007365323600000C
:1032E00002008CC3D55FB66052520000000000009F
:1032F000000073653237000002008CC3D55FB660F2
:1033000054520000000000000000736532380000D5
:1033100002008CC3D55FB66056520000000000006A
:10332000000073653239000002008CC3D55FB660BF
:103330005852000000000000000073797300000084
:1033400000008CC3E86243616F330000000000009E
:10335000000070310000000000008CC3E86243618F
:103360006F3300000000000000003100000000008A
:1033700000008CC3E86243616F330000000000006E
:10338000000032000000000000008CC3E8624361CE
:103390006F33000000000000000033000000000058
:1033A00000008CC3E86243616F330000000000003E
:1033B000000034000000000000008CC3E86243619C
:1033C0006F330000000000000000780000000000E3
:1033D00000008CC3E86243616F330000000000000E
:1033E000000079000000000000008CC3E862436127
:1033F0006F3300000000000000007A0000000000B1
:1034000000008CC3E86243616F33000000000000DD
:10341000000061000000000000008CC3E86243610E
:103420006F33000000000000000062000000000098
:1034300000008CC3E86243616F33000000000000AD
:10344000000063000000000000008CC3E8624361DC
:103450006F330000000000000000673534000000FA
:1034600000008CC3E86243616F330000000000007D
:10347000000067353500000000008CC3E86243613E
:103480006F330000000000000000673536000000C8
:1034900000008CC3E86243616F330000000000004D
:1034A000000067353700000000008CC3E86243610C
:1034B0006F33000000000000000067353800000096
:1034C00000008CC3E86243616F330000000000001D
:1034D000000067353900000000008CC3E8624361DA
:1034E0006F33000000000000000067393200000068
:1034F00000008CC3E86243616F33000000000000ED
:10350000000067323800000000008CC3E8624361AD
:103510006F3300000000000000006733300000003F
:1035200000008CC3E86243616F33000000000000BC
:1035300000006D706F00000000008CC3E862436102
:103540006F330000000000000000706F7300000087
:1035500000008CC3E86243616F330000000000008C
:1035600000006F667300000000008CC3E8624361D6
:103570006F330000000000000000686F6D00000065
:1035800000008CC3E86243616F330000000000005C
:10359000000070726200000000008CC3E8624361AA
:1035A0006F33000000000000000070777200000020
:1035B00000008CC3E86243616F330000000000002C
:1035C00000006A6F6700000000008CC3E86243617E
:1035D0006F3300000000000000006A696400000012
:1035E00000008CC3E86243616F33000000000000FC
:1035F000000075646100000000008CC3E862436154
:103600006F330000000000000000756462000000DD
:1036100000008CC3E86243616F33000000000000CB
:10362000000075646300000000008CC3E862436121
:103630006F330000000000000000756464000000AB
:1036400000008CC3E86243616F330000000000009B
:1036500000005F746500000000008CC3E8624361F5
:103660006F3300000000000000005F747200000073
:1036700000008CC3E86243616F330000000000006B
:1036800000005F747300000000008CC3E8624361B7
:103690006F3300000000000000005F707300000046
:1036A00000008CC3E86243616F330000000000003B
:1036B00000005F637300000000008CC3E862436198
:1036C0006F3300000000000000005F657300000021
:1036D00000008CC3E86243616F330000000000000B
:1036E00000005F787300000000008CC3E862436153
:1036F0006F3300000000000000005F6665000000FE
:1037000000008CC3E86243616F33000000000000DA
:1037100000006D000000000000008CC32F655860A1
:103720006F33000000000000000071000000000086
:1037300000008CC3156558606F3300000000000066
:1037400000006F000000000000008CC3FB645860A4
:103750006F330000000000000000240000000000A3
:1037600000008CC3496558606F3300000000456E4F
:1037700064206F6620636F6D6D616E642066696C96
:10378000650A00486F6D696E67206572726F7220FE
:103790002D20256320617869732073657474696EC8
:1037A0006773206D6973636F6E66696775726564B0
:1037B0000050726F62696E67206572726F72202DA1
:1037C00020256320617869732063616E6E6F7420B9
:1037D0006D6F766520647572696E672070726F62B6
:1037E000696E67005B69645D202054696E794720CB
:1037F0004944253330730A005B68765D2020686198
:103800007264776172652076657273696F6E2531B7
:10381000362E32660A005B68705D20206861726433
:103820007761726520706C6174666F726D253135D9
:103830002E32660A005B66765D20206669726D77BF
:103840006172652076657273696F6E2531362E322E
:10385000660A005B66625D20206669726D77617240
:1038600065206275696C642531382E32660A004520
:103870006E7465722024626F6F743D3120746F2006
:10388000656E7465722074686520626F6F74206C59
:103890006F616465722E0A000A0A0A2323232054EA
:1038A000696E794720424F4F54204C4F4144455256
:1038B0002048656C70202323230A00456E746572CE
:1038C0002024646566613D3120746F2072657365E4
:1038D00074207468652073797374656D20746F202B
:1038E00074686520666163746F72792064656661CF
:1038F000756C742076616C7565732E0A54686973F3
:103900002077696C6C206F766572777269746520B8
:10391000616E79206368616E67657320796F7520C9
:1039200068617665206D6164652E0A000A0A0A23C3
:1039300023232054696E794720524553544F5245F2
:103940002044454641554C54532048656C70202313
:1039500023230A00496E766F6B652073656C6620C1
:103960007465737420627920656E746572696E6720
:103970002024746573743D4E207768657265204E0F
:10398000206973206F6E65206F663A0A20202474C8
:103990006573743D312020736D6F6B6520746573A2
:1039A000740A202024746573743D322020686F6D82
:1039B000696E67207465737420202028796F7520E4
:1039C0006D757374207472697020686F6D696E67AD
:1039D000207377697463686573290A2020247465ED
:1039E00073743D3320207371756172652074657343
:1039F00074202020286120736572696573206F66CA
:103A00002073717561726573290A202024746573AF
:103A1000743D34202061726320746573742020200B
:103A200020202028736F6D65206C617267652063AC
:103A30006972636C6573290A202024746573743D70
:103A40003520206477656C6C2074657374202020A9
:103A500020286D6F766573207370616365642062E2
:103A6000792031207365636F6E64206477656C6CB8
:103A700073290A202024746573743D3620206665FE
:103A80006564686F6C6420746573742028656E7457
:103A90006572202120616E64207E20746F20686F23
:103AA0006C6420616E6420726573746172742C2082
:103AB000726573706563746976656C79290A202074
:103AC00024746573743D3720204D20636F646573E3
:103AD00020746573742020284D20636F6465732003
:103AE000696E7465726D696E676C65642077697460
:103AF00068206D6F766573290A20202474657374BD
:103B00003D3820204A534F4E207465737420202086
:103B10002020286D6F74696F6E2074657374207235
:103B2000756E207573696E67204A534F4E20636F20
:103B30006D6D616E6473290A202024746573743D71
:103B4000392020696E76657273652074696D652011
:103B5000746573740A202024746573743D313020B9
:103B6000726F74617279206D6F74696F6E20746505
:103B700073740A202024746573743D313120736D91
:103B8000616C6C206D6F76657320746573740A20A8
:103B90002024746573743D313220736C6F77206D0F
:103BA0006F76657320746573740A202024746573BE
:103BB000743D313320636F6F7264696E6174652088
:103BC00073797374656D206F6666736574207465B0
:103BD000737420284739322C204735342D47353926
:103BE000290A0A546573747320617373756D6520B7
:103BF000612063656E7465726564205859206F7228
:103C00006967696E20616E64206174206C65617300
:103C1000742038306D6D20636C656172616E636510
:103C200020696E20616C6C20646972656374696FD1
:103C30006E730A546573747320617373756D6520B8
:103C40005A20686173206174206C6561737420343C
:103C5000306D6D20706F7369697469766520636C6F
:103C6000656172616E63650A546573747320737461
:103C70006172742077697468206120473020583061
:103C8000205930205A30206D6F76650A486F6D6973
:103C90006E67206973207468652065786365707449
:103CA000696F6E2E204E6F20696E697469616C2099
:103CB000706F736974696F6E206F7220636C6561D9
:103CC00072616E636520697320617373756D6564DD
:103CD0000A000A0A0A2323232054696E79472053D5
:103CE000454C4620544553542048656C702023238E
:103CF000230A0045616368202420636F6D6D616E47
:103D0000642061626F766520616C736F20646973F3
:103D1000706C6179732074686520746F6B656E20B8
:103D2000666F7220656163682073657474696E677D
:103D300020696E205B205D20627261636B65747325
:103D40000A546F20766965772073657474696E67AD
:103D50007320656E746572206120746F6B656E3AB6
:103D60000A0A2020243C746F6B656E3E0A0A466F77
:103D700072206578616D706C65202479667220749C
:103D80006F20646973706C617920746865205920B4
:103D90006D6178206665656420726174650A0A54F5
:103DA0006F207570646174652073657474696E67E3
:103DB0007320656E74657220746F6B656E2065711B
:103DC00075616C732076616C75653A0A0A2020244F
:103DD0003C746F6B656E3E3D3C76616C75653E0A6A
:103DE0000A466F72206578616D706C652024796673
:103DF000723D38303020746F2073657420746865AC
:103E00002059206D61782066656564207261746553
:103E100020746F20383030206D6D2F6D696E757491
:103E2000650A466F7220636F6E66696775726174AA
:103E3000696F6E2064657461696C73207365653A9F
:103E40002068747470733A2F2F6769746875622ED6
:103E5000636F6D2F73796E746865746F732F546917
:103E60006E79472F77696B692F54696E79472D43B7
:103E70006F6E66696775726174696F6E0A00546867
:103E800065736520636F6D6D616E6473206172652B
:103E90002061637469766520666F7220636F6E6659
:103EA000696775726174696F6E3A0A2020247379AC
:103EB000732053686F772073797374656D2028675A
:103EC000656E6572616C292073657474696E6773C1
:103ED0000A2020243120202053686F77206D6F74D2
:103EE0006F7220312073657474696E677320286F58
:103EF00072207768617465766572206D6F746F7279
:103F000020796F752077616E7420312C322C332C20
:103F100034290A2020247820202053686F772058E5
:103F200020617869732073657474696E67732028E3
:103F30006F72207768617465766572206178697345
:103F400020796F752077616E7420782C792C7A2C0B
:103F5000612C622C63290A2020246D2020205368C4
:103F60006F7720616C6C206D6F746F722073657455
:103F700074696E67730A2020247120202053686FB3
:103F80007720616C6C206178697320736574746943
:103F90006E67730A2020246F20202053686F7720DB
:103FA000616C6C206F6666736574207365747469E8
:103FB0006E67730A2020242420202053686F772006
:103FC000616C6C2073657474696E67730A202024B9
:103FD0006820202053686F772074686973206865B3
:103FE0006C702073637265656E0A0A000A0A0A2300
:103FF00023232054696E794720434F4E4649475545
:10400000524154494F4E2048656C70202323230AA7
:10401000000A466F722064657461696C656420549F
:10402000696E794720696E666F207365653A20680E
:10403000747470733A2F2F6769746875622E636F9A
:104040006D2F73796E746865746F732F54696E7910
:10405000472F77696B692F0A466F72207468652055
:104060006C6174657374206669726D776172652026
:104070007365653A2068747470733A2F2F6769749A
:104080006875622E636F6D2F73796E746865746FD7
:10409000732F54696E79470A506C65617365206CA3
:1040A0006F6720616E792069737375657320617421
:1040B00020687474703A2F2F7777772E73796E7427
:1040C0006865746F732E636F6D2F666F72756D7395
:1040D0000A486176652066756E0A000A4E6F74653F
:1040E0003A2054696E79472067656E657261746520
:1040F00073206175746F6D6174696320737461748A
:104100007573207265706F727473206279206465B4
:104110006661756C740A546869732063616E20620D
:10412000652064697361626C656420627920656EE4
:10413000746572696E67202473763D300A53656535
:10414000207468652077696B692062656C6F7720E1
:10415000666F72206D6F72652064657461696C733F
:104160002E0A00546865736520636F6D6D616E641F
:104170007320617265206163746976652066726F71
:104180006D2074686520636F6D6D616E64206C696D
:104190006E653A0A205E78202020202020202020F2
:1041A0002020202052657365742028636F6E74721E
:1041B0006F6C207829202D20736F6674776172658B
:1041C0002072657365740A20203F20202020202063
:1041D000202020202020204D616368696E652070BA
:1041E0006F736974696F6E20616E642067636F64BA
:1041F00065206D6F64656C2073746174650A20209E
:10420000242020202020202020202020202053682F
:104210006F7720616E642073657420636F6E6669CA
:104220006775726174696F6E2073657474696E6707
:10423000730A202021202020202020202020202040
:10424000202046656564686F6C64202D2073746F50
:1042500070206D6F74696F6E20776974686F757404
:10426000206C6F73696E6720706F736974696F6E0D
:104270000A20207E202020202020202020202020F6
:10428000204379636C65205374617274202D207211
:104290006573746172742066726F6D206665656403
:1042A000686F6C640A2020682020202020202020B5
:1042B000202020202053686F77207468697320685D
:1042C000656C702073637265656E0A202024682017
:1042D000202020202020202020202053686F7720BD
:1042E000636F6E66696775726174696F6E20686569
:1042F0006C702073637265656E0A20202474657388
:10430000742020202020202020204C6973742073EA
:10431000656C662D74657374730A2020247465734C
:10432000743D4E2020202020202052756E20736581
:104330006C662D74657374204E0A202024686F6D9E
:10434000653D312020202020202052756E206120E4
:10435000686F6D696E67206379636C650A2020243D
:10436000646566613D312020202020202052657345
:10437000746F726520616C6C2073657474696E670C
:104380007320746F2022666163746F7279222064D7
:10439000656661756C74730A000A0A0A2323232078
:1043A00054696E79472048656C70202323230A00E6
:1043B0005B6A735D20206A736F6E2073657269613A
:1043C0006C697A65207374796C65253964205B307B
:1043D0003D72656C617865642C313D7374726963FC
:1043E000745D0A005B6A765D20206A736F6E2076CA
:1043F0006572626F7369747925313564205B303D75
:1044000073696C656E742C313D666F6F7465722CC8
:10441000323D6D657373616765732C333D636F6EF9
:10442000666967732C343D6C696E656E756D2C35ED
:104430003D766572626F73655D0A005B656A5D203B
:1044400020656E61626C65206A736F6E206D6F64AB
:104450006525313364205B303D746578742C313DC3
:104460004A534F4E5D0A0074556E55675562555953
:10447000554E55435537552B551D550655F754EA9E
:1044800054DE54CA54BD54A854945491548E547F4D
:10449000546A5455544654365424540D54F053D34E
:1044A00053BA53A45393538153745362534853459F
:1044B0005342533F533C5339533653335330532DA8
:1044C000532A532753245321531E531B5318531558
:1044D0005312530F530C530953065303530053FD08
:1044E00052FA52F752F452F152EE52EB52E852E5C0
:1044F00052E252DF52DC52D952D652D352D052CD70
:1045000052CA52C752C452C152BE52BB52B852B51F
:1045100052B252AF52AC52A952A652825262524883
:10452000522E521452F051D351BB51A5518B5167A9
:10453000514A51385118510151E850C650AD508F71
:104540005073505B5049502B50165012500E500A69
:104550005006500250FE4FFA4FF64FF24FEE4FEA20
:104560004FE64FE24FDE4FDA4FD64FBC4FA24F8F90
:104570004F734F614F4A4F294F184FF84ED84EBED8
:104580004EA44E8D4E5A4E2D4E0D4EEB4DC54D9EAA
:104590004D824D634D494D2F4D0A4DE14CC94C9E06
:1045A0004C724C3C4C074CF54BE34BD44BC14BA8E5
:1045B0004B864B744B624B504B3E4B2C4B1A4B086B
:1045C0004BF64AE44AD24AC04AAE4A9C4A8A4A86D4
:1045D0004A824A7E4A7A4A764A724A6E4A6A4A66EB
:1045E0004A624A5E4A5A4A564A524A4E4A4A4A46DB
:1045F0004A424A3E4A3A4A264A084AEC49C1499C3C
:1046000049774973496F496B49674963495F495B1A
:1046100049574953494F494B49474943493F492B1A
:10462000490F49F348D748BB489F48834867484BE0
:10463000482F481348F747DB47D747D347CF47CBE7
:1046400047C747C347BF47AB4783475C4736470920
:1046500047E346B646B246AE46AA46974676466118
:10466000464A6F6767696E67206379636C65206689
:1046700061696C65640050726F626520656E64707C
:104680006F696E74206973207374617274696E67E8
:1046900020706F696E740050726F62652063796379
:1046A0006C65206661696C656400323439003234AF
:1046B000380032343700486F6D696E67204572727A
:1046C0006F72202D20486F6D696E67207377697453
:1046D00063686573206D6973636F6E666967757271
:1046E000656400486F6D696E67204572726F722055
:1046F0002D204E65676174697665206C617463680E
:10470000206261636B6F666600486F6D696E67203B
:104710004572726F72202D2054726176656C206D27
:10472000696E2026206D617820617265207468654D
:104730002073616D6500486F6D696E672045727208
:104740006F72202D204C617463682076656C6F63F6
:10475000697479206973207A65726F00486F6D699A
:104760006E67204572726F72202D205365617263EF
:10477000682076656C6F63697479206973207A6547
:10478000726F00486F6D696E67204572726F72209C
:104790002D20426164206F72206E6F2061786973F2
:1047A0002073706563696669656400486F6D696E42
:1047B00067206379636C65206661696C65640032AB
:1047C0003339003233380032333700323336003277
:1047D0003335003233340032333300536F66742084
:1047E0006C696D6974206578636565646564202D06
:1047F0002043206D617800536F6674206C696D6989
:1048000074206578636565646564202D2043206DA0
:10481000696E00536F6674206C696D6974206578E9
:10482000636565646564202D2042206D61780053C6
:104830006F6674206C696D69742065786365656462
:104840006564202D2042206D696E00536F667420D0
:104850006C696D6974206578636565646564202D95
:104860002041206D617800536F6674206C696D691A
:1048700074206578636565646564202D2041206D32
:10488000696E00536F6674206C696D697420657879
:10489000636565646564202D205A206D617800533E
:1048A0006F6674206C696D697420657863656564F2
:1048B0006564202D205A206D696E00536F66742048
:1048C0006C696D6974206578636565646564202D25
:1048D0002059206D617800536F6674206C696D6992
:1048E00074206578636565646564202D2059206DAA
:1048F000696E00536F6674206C696D697420657809
:10490000636565646564202D2058206D61780053CF
:104910006F6674206C696D69742065786365656481
:104920006564202D2058206D696E00536F667420D9
:104930006C696D69742065786365656465640032CF
:1049400031390032313800323137003231360032FD
:1049500031350032313400323133003231320032FD
:1049600031310032313000323039003230380032EB
:104970003037003230360054726170657A6F696486
:1049800020706C616E6E6572206661696C65642072
:10499000746F20636F6E7665726765004C696D6930
:1049A000742073776974636820686974202D2053BC
:1049B000687574646F776E206F6363757272656477
:1049C000004D616368696E6520697320616C617276
:1049D0006D6564202D20436F6D6D616E64206E6F78
:1049E000742070726F636573736564004D6F7665D4
:1049F000206C657373207468616E206D696E696DDB
:104A0000756D2074696D65004D6F7665206C6573FA
:104A100073207468616E206D696E696D756D206CB0
:104A2000656E6774680047656E65726963205469D6
:104A30006E7947206572726F7200313939003139F1
:104A400038003139370031393600313935003139E4
:104A500034003139330031393200313931003139E4
:104A600030003138390031383800313837003138CA
:104A700036003138350031383400313833003138C0
:104A8000320031383100313830005420776F726491
:104A900020697320696E76616C6964005420776FB9
:104AA0007264206973206D697373696E67005220A8
:104AB000776F726420697320696E76616C69640037
:104AC0005220776F7264206973206D697373696E09
:104AD00067005120776F726420697320696E766178
:104AE0006C6964005120776F7264206973206D696E
:104AF0007373696E67004C20776F7264206973204E
:104B0000696E76616C6964004C20776F726420690D
:104B100073206D697373696E67004820776F7264E4
:104B200020697320696E76616C6964004820776F34
:104B30007264206973206D697373696E6700452024
:104B4000776F726420697320696E76616C696400A6
:104B50004520776F7264206973206D697373696E85
:104B600067004420776F726420697320696E7661F4
:104B70006C6964004420776F7264206973206D69EA
:104B80007373696E67005020776F726420697320B9
:104B90006E6F7420612076616C696420746F6F6C35
:104BA000206E756D626572005020776F72642069A7
:104BB00073206E6F7420616E20696E746567657214
:104BC000005020776F7264206973206E656761748E
:104BD000697665005020776F7264206973207A656A
:104BE000726F005020776F726420697320696E764F
:104BF000616C6964005020776F7264206973206D66
:104C0000697373696E6700417263207370656369CD
:104C10006669636174696F6E206572726F72202DB0
:104C200020656E64706F696E74206973207374619F
:104C30007274696E6720706F696E740041726320D0
:104C400073706563696669636174696F6E2065720C
:104C5000726F72202D2072616469757320617263B6
:104C6000206F7574206F6620746F6C6572616E635F
:104C7000650041726320737065636966696361747E
:104C8000696F6E206572726F72202D206D6973736B
:104C9000696E67206F6666736574287329004172B8
:104CA000632073706563696669636174696F6E2000
:104CB0006572726F72202D206D697373696E672043
:104CC0006178697328657329004172632073706588
:104CD00063696669636174696F6E206572726F7271
:104CE000005370696E646C65206D75737420626525
:104CF000207475726E696E6720666F7220746869C1
:104D00007320636F6D6D616E64005370696E646CC7
:104D100065206D757374206265206F666620666F0E
:104D200072207468697320636F6D6D616E640053E7
:104D300070696E646C65205320776F7264206973AC
:104D400020696E76616C6964005370696E646C658D
:104D5000205320776F7264206973206D69737369C3
:104D60006E67005370696E646C652073706565646E
:104D7000206578636565646564206D6178696D752B
:104D80006D005370696E646C652073706565642096
:104D900062656C6F77206D696E696D756D0050721C
:104DA0006F6772616D6D656420706F696E742073DA
:104DB000616D652061732063757272656E74207019
:104DC0006F696E740043757474657220636F6D70E3
:104DD000656E736174696F6E2063616E6E6F7420AF
:104DE000626520656E61626C65640052657175650F
:104DF000737465642076656C6F6369747920657877
:104E00006365656473206C696D6974730047302055
:104E10006F72204731206D75737420626520616365
:104E20007469766520666F722047353300526F745F
:104E300061727920617865732063616E6E6F742092
:104E40006265207573656420776974682074686989
:104E50007320636F6D6D616E6400496E7665727369
:104E6000652074696D65206D6F64652063616E6E89
:104E70006F7420626520757365642077697468209B
:104E80007468697320636F6D6D616E64004665655B
:104E90006472617465206E6F7420737065636966F7
:104EA0006965640053656C656374656420706C614A
:104EB0006E6520697320696E76616C696400536564
:104EC0006C656374656420706C616E652069732025
:104ED0006D697373696E67004178697320746172DC
:104EE00067657420706F736974696F6E20697320D1
:104EF000696E76616C6964004178697320746172CF
:104F000067657420706F736974696F6E20697320B0
:104F10006D697373696E67004178697320697320E6
:104F200064697361626C65640041786973206973B8
:104F300020696E76616C696420666F72207468699E
:104F40007320636F6D6D616E6400417869732063D7
:104F5000616E6E6F742062652070726573656E7429
:104F6000004178697320776F7264206D697373698B
:104F70006E670047636F6465206D6F64616C2067C6
:104F8000726F75702076696F6C6174696F6E004D19
:104F900020636F646520756E737570706F727465D1
:104FA000640047636F646520636F6D6D616E64209C
:104FB000756E737570706F727465640047656E65A9
:104FC0007269632047636F646520696E7075742031
:104FD0006572726F7200313239003132380031320D
:104FE000370031323600313235003132340031325F
:104FF0003300313232003132310031323000313160
:10500000390031313800313137003131360031313A
:105010003500313134004A534F4E20737472696E3B
:105020006720746F6F206C6F6E67004A534F4E207D
:10503000696E7075742068617320746F6F206D6184
:105040006E79207061697273004A534F4E207379F4
:105050006E746178206572726F7200496E7075743B
:105060002076616C75652072616E6765206572726D
:105070006F7200496E70757420657863656564733E
:10508000206D6178696D756D2076616C756500497C
:105090006E707574206C657373207468616E206D1A
:1050A000696E696D756D2076616C756500496E700D
:1050B00075742065786365656473206D6178206C14
:1050C000656E67746800436F6D6D616E64206E6F0E
:1050D0007420616363657074656420617420746812
:1050E00069732074696D6500506172616D657465E6
:1050F000722063616E6E6F742062652072656164F8
:1051000000506172616D657465722069732072650B
:1051100061642D6F6E6C7900556E737570706F726F
:10512000746564206E756D626572206F72204A53DB
:105130004F4E207479706500426164206E756D6217
:10514000657220666F726D617400496E76616C697C
:1051500064206F72206D616C666F726D6564206390
:105160006F6D6D616E6400556E7265636F676E6919
:105170007A656420636F6D6D616E64206F72206369
:105180006F6E666967206E616D650047656E65725A
:10519000696320617373657274696F6E20666169FB
:1051A0006C757265004D656D6F7279206661756C06
:1051B0007420646574656374656400537461636B23
:1051C000206F766572666C6F7720646574656374B2
:1051D000656400436F6E74726F6C6C6572206173EE
:1051E00073657274696F6E206661696C75726500B3
:1051F00043616E6F6E6963616C206D616368696E97
:105200006520617373657274696F6E206661696C85
:1052100075726500506C616E6E65722061737365A6
:105220007274696F6E206661696C75726500537483
:10523000657070657220617373657274696F6E203A
:105240006661696C75726500456E636F6465722096
:10525000617373657274696F6E206661696C7572D3
:105260006500494F207375622D73797374656D20E5
:10527000617373657274696F6E206661696C7572B3
:105280006500436F6E666967207375622D7379736D
:1052900074656D20617373657274696F6E206661E9
:1052A000696C757265003839003838003837003855
:1052B00036003835003834003833003832003831A1
:1052C00000383000373900373800373700373600BC
:1052D0003735003734003733003732003731003785
:1052E000300036390036380036370036360036356D
:1052F00000363400363300363200363100363000A6
:10530000353900353800353700353600353500354C
:105310003400353300353200353100353000343952
:10532000003438003437003436003435003434006B
:105330003433003432003431003430003339003338
:10534000380033370033360042616420737461746F
:105350007573207265706F72742073657474696EF2
:10536000670050657273697374656E63652065725A
:10537000726F7200466C6F6174206973204E414EEB
:1053800000466C6F617420697320696E66696E698E
:105390007465004D6F76652074696D6520697320B2
:1053A0004E414E004D6F76652074696D65206973BE
:1053B00020696E66696E6974650047656E6572691D
:1053C0006320657863657074696F6E207265706FB5
:1053D0007274004661696C656420746F206765743F
:1053E00020706C616E6E6572206275666665720013
:1053F00053797374656D20616C61726D202D20731B
:1054000068757474696E6720646F776E00496E69A1
:105410007469616C697A6174696F6E206661696C28
:1054200075726500526561642D6F6E6C79206164E0
:10543000647265737300496E76616C6964204164BF
:1054400064726573730044697669646520627920CB
:105450007A65726F00466C6F6174696E6720706F59
:10546000696E74206572726F7200496E7465726E37
:10547000616C2072616E6765206572726F7200499F
:105480006E7465726E616C206572726F7200313974
:105490000031380046756E6374696F6E2069732041
:1054A0007374756262656400456E746572696E67D7
:1054B00020626F6F74206C6F6164657200496E6961
:1054C0007469616C697A696E6700427566666572B7
:1054D0002066756C6C202D20666174616C004275CD
:1054E000666665722066756C6C00427566666572EC
:1054F00020656D707479004E6F2073756368206449
:105500006576696365004D61782066696C65207316
:10551000697A652065786365656465640046696CD1
:1055200065206E6F74206F70656E00456E64206F2D
:10553000662066696C6500456E64206F66206C6944
:105540006E6500486172642072657365740054650D
:10555000726D696E6174656400436F6D706C657423
:1055600065004E6F6F700045616761696E0045723E
:10557000726F72004F4B005B7031706F665D207010
:10558000776D207068617365206F66662020202526
:1055900031352E3366205B302E2E315D0A005B7074
:1055A000317770685D2070776D2063637720706855
:1055B0006173652068692531352E3366205B302E96
:1055C0002E315D0A005B703177706C5D2070776DF5
:1055D00020636377207068617365206C6F253135B7
:1055E0002E3366205B302E2E315D0A005B703177E2
:1055F00073685D2070776D206363772073706565D5
:10560000642068692531352E30662052504D0A00DD
:105610005B703177736C5D2070776D2063637720EA
:105620007370656564206C6F2531352E30662052AD
:10563000504D0A005B70316370685D2070776D209B
:105640006377207068617365206869202531352E85
:105650003366205B302E2E315D0A005B7031637043
:105660006C5D2070776D20637720706861736520B2
:105670006C6F202531352E3366205B302E2E315D48
:105680000A005B70316373685D2070776D2063770B
:10569000207370656564206869202531352E306679
:1056A0002052504D0A005B703163736C5D2070773F
:1056B0006D206377207370656564206C6F202531E1
:1056C000352E30662052504D0A005B703166727183
:1056D0005D2070776D206672657175656E637920E7
:1056E00020202531352E306620487A0A0053595340
:1056F00054454D205245414459004C6F6164696ED8
:105700006720636F6E666967732066726F6D2045F0
:105710004550524F4D00496E697469616C697A69F0
:105720006E6720636F6E6669677320746F204F70B9
:10573000656E506E50206578706572696D656E7427
:10574000616C2070726F66696C65007B22657222E5
:105750003A7B226662223A25302E32662C227374FE
:10576000223A25642C226D7367223A222573227D0A
:105770007D0A007B65723A7B66623A25302E32667E
:105780002C73743A25642C6D73673A222573227D3D
:105790007D0A005B71765D202071756575652072EC
:1057A00065706F727420766572626F7369747925A3
:1057B0003764205B303D6F66662C313D73696E67E0
:1057C0006C652C323D747269706C655D0A00716F96
:1057D0003A25640A0071693A25640A0071723A2513
:1057E000640A005B73765D202073746174757320A6
:1057F0007265706F727420766572626F7369747906
:10580000253664205B303D6F66662C313D66696CE1
:1058100074657265642C323D766572626F73655D86
:105820000A005B73695D202073746174757320696D
:105830006E74657276616C2531342E3066206D731E
:105840000A004D6F746F7220256320706F77657248
:1058500020656E61626C65642073746174653A25BD
:10586000322E30660A005B257325735D206D25732B
:1058700020706F776572206D616E6167656D656E12
:105880007425313064205B303D64697361626C65FE
:10589000642C313D616C77617973206F6E2C323DE1
:1058A000696E206379636C652C333D7768656E2083
:1058B0006D6F76696E675D0A005B257325735D20E9
:1058C0006D257320706F6C6172697479253138644D
:1058D000205B303D6E6F726D616C2C313D72657670
:1058E000657273655D0A005B257325735D206D2508
:1058F00073206D6963726F737465707325313664DC
:10590000205B312C322C342C385D0A005B2573254A
:10591000735D206D25732074726176656C207065EF
:1059200072207265766F6C7574696F6E2531302EDA
:10593000346625730A005B257325735D206D25731E
:10594000207374657020616E676C652532302E336C
:105950006625730A005B257325735D206D25732012
:105960006D617020746F2061786973253135642012
:105970005B303D582C313D592C323D5A2E2E2E5D38
:105980000A005B6D745D20206D6F746F7220696416
:105990006C652074696D656F75742531342E3266BF
:1059A000205365630A00B559B159AC592064656745
:1059B00000206D6D0020696E005B73745D202073A4
:1059C0007769746368207479706525313864205B69
:1059D000303D4E4F2C313D4E435D0A00546573748B
:1059E00020232564206E6F7420666F756E640A0034
:1059F0004E362047393220583735205930205A301A
:105A00000A4E3720463530302E300A4E3820473186
:105A100059302E3239315A2D322E3139380A4E3919
:105A2000205837342E37363759302E3035385A2DE6
:105A3000322E3335350A4E3130205837342E373038
:105A400039592D302E3030305A2D322E3337310A1D
:105A50004E3131205837342E3532395A2D322E32CC
:105A600036340A4E3132205837342E3633345930DA
:105A70002E3130355A2D322E3331390A4E31332002
:105A80005837342E38343359302E3331345A2D327E
:105A90002E3138330A4E3134205837352E303030DD
:105AA00059302E3437315A2D322E3132360A4E319A
:105AB000352059302E3635305A2D322E3130300ABD
:105AC0004E3136205837342E37383359302E343350
:105AD000345A2D322E3133310A4E31372058373473
